:020000040800F2
:10000000D00B00208D010008C52C0008FD29000838
:10001000C32C0008E51E0008212D00080000000088
:10002000000000000000000000000000C92C0008D3
:10003000E71E000800000000C72C0008CB2C0008B9
:10004000A7010008A7010008A7010008A7010008F0
:10005000A7010008A7010008A7010008A7010008E0
:10006000A7010008A7010008A7010008A7010008D0
:10007000A7010008A7010008A7010008A7010008C0
:10008000A7010008A7010008A7010008A7010008B0
:10009000A7010008A7010008A7010008A7010008A0
:1000A000A7010008A7010008A7010008A701000890
:1000B000A7010008A7010008A7010008A701000880
:1000C000A7010008A7010008A7010008A701000870
:1000D000A7010008A7010008A7010008A701000860
:1000E000A7010008A7010008A701000800F002F816
:1000F00000F03CF80AA090E8000C82448344AAF186
:100100000107DA4501D100F031F8AFF2090EBAE883
:100110000F0013F0010F18BFFB1A43F0010318473B
:10012000604C0000804C0000103A24BF78C878C1B1
:10013000FAD8520724BF30C830C144BF04680C60ED
:10014000704700000023002400250026103A28BF35
:1001500078C1FBD8520728BF30C148BF0B60704739
:100160001FB502F09FFE1FBD10B510BD00F085F851
:100170001146FFF7F5FF02F0E5FD00F0A3F803B428
:10018000FFF7F2FF03BC00F0ABF80000094880471E
:1001900009480047FEE7FEE7FEE7FEE7FEE7FEE769
:1001A000FEE7FEE7FEE7FEE704480549054A064B81
:1001B000704700001F2D0008ED000008D00500204A
:1001C000D00B0020D0070020D007002001F0FF0353
:1001D000114601B543EA032242EA024200F02DF83B
:1001E00001BD4FF0000200B51346944696462039F3
:1001F00022BFA0E80C50A0E80C50B1F12001BFF4E0
:10020000F7AF090728BFA0E80C5048BF0CC05DF845
:1002100004EB890028BF40F8042B08BF704748BF93
:1002200020F8022B11F0804F18BF00F8012B704707
:100230007047704770474FF000020429C0F01280E9
:1002400010F0030C3FF4CFAFCCF1040CBCF1020F63
:1002500018BF00F8012BA8BF20F8022BA1EB0C015E
:10026000FFF7C1BF5FEAC17C24BF00F8012B00F893
:10027000012B48BF00F8012B7047754600F02CF8A1
:10028000AE4605006946534620F00700854618B083
:1002900020B5FFF789FFBDE820404FF000064FF082
:1002A00000074FF000084FF0000B21F00701AC46AB
:1002B000ACE8C009ACE8C009ACE8C009ACE8C009CA
:1002C0008D46704710B50446AFF300802046BDE868
:1002D0001040FFF754BF0000004870476C01002039
:1002E00001491820ABBEFEE7260002000048704717
:1002F00070010020704780B584B000AF78607B68E3
:100300001B681B7CFB607B6893F838301A46FB68DF
:1003100002FB03F3FB60FB68DB00FB607B685B6B4D
:10032000FA6800211846FFF751FF00BF1037BD469D
:1003300080BD000080B584B000AFF860084611466B
:100340001A4603467B810B463B811346FB80FB68C4
:1003500093F87030032B33D801A252F823F000BF7A
:10036000710300088503000899030008AD03000825
:10037000FB68DB6DF868984703461A463B891344CF
:100380003B811DE0FB68DB6DF868984703461A4621
:100390007B899B1A7B8113E0FB68DB6DF8689847CB
:1003A00003461A463B899B1A3B8109E0FB68DB6DDB
:1003B000F868984703461A467B8913447B8100BF3F
:1003C000FB883A897989F86800F0E2FD034618460F
:1003D0001037BD4680BD00BF90B587B002AFF86052
:1003E000084611461A4603467B810B463B8113465D
:1003F000FB80FB6893F88C30002B75D0FB88002BBA
:1004000072D0FB88012B1AD997F82030022B09D122
:100410007A89FB88D31A9BB27B817B8901339BB29B
:100420007B810CE097F82030032B08D13A89FB88B8
:10043000D31A9BB23B813B8901339BB23B8197F836
:10044000203003F0010387F8203097F82030002B8C
:100450001AD1FB68B3F84C203B899A423BD8FB6821
:10046000B3F84E203B899A4237D9FB68B3F848204D
:10047000FB68B3F84A30B91D07F10A0000F096FA9C
:100480000346002B1AD12FE0FB68B3F848207B8984
:100490009A4224D8FB68B3F84A207B899A4220D933
:1004A000FB68B3F84C20FB68B3F84E30B91D07F178
:1004B000080000F07BFA0346002B14D0FB681B6B8E
:1004C0009C6879893A89F88897F820300093034628
:1004D000F868A04708E000BF06E000BF04E000BFE6
:1004E00002E000BF00E000BF1437BD4690BD000031
:1004F00080B584B000AFF8607B600B467B8113460B
:100500003B81FB68064A5A603A8979897B68F868BA
:1005100000F0D4FA034618461037BD4680BD00BF30
:10052000E317000880B584B000AFF8607B600B462D
:100530007B8113463B81FB68064A5A603A89798978
:100540007B68F86800F0BAFA034618461037BD46D3
:1005500080BD00BFDF1D000880B584B000AFF8602B
:10056000084611461A4603467B810B463B811346DB
:10057000FB80FB68B3F84C00FB68B3F84E103B8B74
:100580003A8900F017FE0346002B01D100230AE050
:10059000FB68B3F84800FB68B3F84A10FB887A8917
:1005A00000F008FE034618461037BD4680BD80B5F2
:1005B00082B000AF7860786800F087FF786801F05B
:1005C00095F800BF0837BD4680BD80B582B000AF4A
:1005D000786039607B689B6D3A689A420BD07B6883
:1005E0003A689A657B6874333968184600F0C4FE2F
:1005F000786800F09DF800BF0837BD4680BD000058
:1006000080B483B000AF78607B68034ADA6500BFCE
:100610000C37BD4680BC7047750B000880B582B0B2
:1006200000AF78607B680022A3F850207B6800222E
:10063000A3F854207B684FF6FF72A3F852207B6822
:100640004FF6FF72A3F856207B681B6B5B687868D7
:10065000984700BF0837BD4680BD80B584B000AF65
:10066000F860B9603B601346FB71FB6800229A6535
:10067000FB683A68DA62FB68BA685A63FB68FA7921
:1006800083F83820FB68002283F83920FB680022B9
:1006900083F86D20FB68002283F89120FB6800221C
:1006A00083F88D20FB68012283F89220FB680122E9
:1006B00083F89320FB68BA691A63FB681B6B1B689D
:1006C000F8689847F868FFF7A9FFF868FFF798FF00
:1006D000FB68002283F8702000BF1037BD4680BD44
:1006E00080B588B002AFF860B9607A603B603B6863
:1006F00000937B680B4A0C49F86801F017F807F182
:100700001303184600F028FE7861FA7CBB6800935A
:10071000064B7969F868FFF7A0FF00BF1837BD46A0
:1007200080BD00BFE9190008951B00081B120008D6
:1007300080B483B000AF78607B689B6D002B5DD088
:100740007B6893F981207B6883F88E207B6893F91E
:1007500082207B6883F88F207B6893F88D30002B94
:100760004DD07B6893F88D30012B1CD17B6893F9B9
:100770008E207B6893F983309A4205DA7B6893F97F
:1007800083207B6883F88E207B6893F98F207B68B9
:1007900093F984309A4232DD7B6893F984207B6838
:1007A00083F88F202BE07B6893F98E301A467B68A4
:1007B00093F97E3019467B6893F980300B449A4256
:1007C0000DDA7B6893F97E30DAB27B6893F980307A
:1007D000DBB21344DBB25AB27B6883F88E207B68AD
:1007E00093F98F207B6893F980309A4207DD7B680C
:1007F00093F980207B6883F88F2000E000BF0C37DE
:10080000BD4680BC704790B482B000AF0446084635
:1008100011461A462346FB8003467B710B463B710B
:100820001346FB70FB78022B14D0022B19DC002B33
:1008300002D0012B07D014E097F905309AB2FB885B
:100840001344FB8014E097F904309BB2FA88D31A62
:10085000FB800DE097F905309BB2FA88D31AFB8034
:1008600006E097F904309AB2FB881344FB8000BF7E
:10087000FB8818460837BD4690BC704790B482B0DC
:1008800000AF0446084611461A462346FB8003463D
:100890007B710B463B711346FB70FB78022B14D027
:1008A000022B19DC002B02D0012B07D014E097F9A2
:1008B00004309AB2FB881344FB8014E097F90530AA
:1008C0009AB2FB881344FB800DE097F904309BB289
:1008D000FA88D31AFB8006E097F905309BB2FA88B4
:1008E000D31AFB8000BFFB8818460837BD4690BC72
:1008F000704780B584B002AF78607B68B3F8501061
:100900007B68B3F854207B68B3F852007B68B3F877
:100910005630009303467868FFF71EFE0346002B0F
:1009200004D17B68002283F88C203BE07B680122A5
:1009300083F88C207B68B3F848207B68B3F850308C
:100940009A4205D27B68B3F850207B68A3F8482010
:100950007B68B3F84A207B68B3F852309A4205D9D5
:100960007B68B3F852207B68A3F84A207B68B3F811
:100970004C207B68B3F854309A4205D27B68B3F8B8
:1009800054207B68A3F84C207B68B3F84E207B682A
:10099000B3F856309A4205D97B68B3F856207B6885
:1009A000A3F84E2000BF0837BD4680BD80B487B095
:1009B00000AFF860B96011461A460B46FB8013463B
:1009C000BB80FB681B88FB82FB8ABB82BB681A88E2
:1009D000BB8A1344BB82FA8ABB8A9A420BD9FA8A31
:1009E000BB889A4205D2BB88BB82BB8A013BBB82D3
:1009F00001E0FB88FB82FA8ABB889A4201D300237C
:100A00001CE0BA8AFB889A4201D8002316E0FA8AD1
:100A1000FB889A4201D2FB88FB82BA8ABB889A4241
:100A200001D9BB88BB82FB68FA8A1A80BA8AFB8A22
:100A3000D31ABB82BB68BA8A1A80012318461C37B6
:100A4000BD4680BC704790B587B002AFF8600846DD
:100A500011461A4603467B810B463B811346FB80B9
:100A6000FB68DB8F3A89D31A3B81FB68DC6AF88824
:100A70003A89798997F8203000930346F868A047AF
:100A800000BF1437BD4690BD80B586B002AFF86098
:100A9000084611461A4603467B810B463B811346A6
:100AA000FB80F8883A8979893B7E00930346F86891
:100AB000FFF7C9FF00BF1037BD4680BD80B586B0C7
:100AC00000AFF8607B600B467B8113463B81F86882
:100AD00001F078F90023FB82FB685B687A68127882
:100AE0001146F86898470346BB82BB8A4FF6FF72EF
:100AF000934238D07B6801337B60BB8A4FF6FE722D
:100B00009342E9D0BB8A3A897989F868FFF712FCE9
:100B100003467B82FB6893F87030032B1ED801A23A
:100B200052F823F0350B00083F0B0008490B000872
:100B3000530B00087A897B8A13447B810EE03A8943
:100B40007B8A13443B8109E07A897B8AD31A7B81B3
:100B500004E03A897B8AD31A3B8100BFFA8A7B8AF8
:100B60001344FB82B8E700BFFB8A18461837BD461E
:100B700080BD00BF80B483B000AF7860002318460A
:100B80000C37BD4680BC704780B584B000AF78603C
:100B90000B46FB70FB781946786800F018F803469E
:100BA000FB730123BB73FB78013BFB7097F90E20AD
:100BB000FB7802FA03F3BB73FA7BBB7BD31ADBB27D
:100BC000FB7397F90F3018461037BD4680BD80B4CF
:100BD00085B000AF78600B46FB707B681B7B7B7336
:100BE0007B681B681B78FB73FA7B7B7B42FA03F301
:100BF000FB737B7BBB73BA7BFB781344BB73BB7B00
:100C0000072B1AD908233B733A7B7B7BD31A3B73A0
:100C10007B681B685A1C7B681A607B681B681B78A2
:100C20001A463B7B02FA03F35AB297F90F3013438B
:100C30005BB2FB73BB7B083BBB73FB784FF0FF32AF
:100C400002FA03F3DBB2DB43DAB2FB7B1340FB7344
:100C50007B68BA7B1A73FB7B18461437BD4680BC91
:100C60007047000080B58AB002AF786039607B6859
:100C700060337B613968786800F065FA7B6893F8C7
:100C80006B30FB747B6893F87A3019467869FFF70C
:100C90007BFF0346BB747B6893F87B301946786909
:100CA000FFF772FF03467B747B6893F87C3019462C
:100CB0007869FFF769FF03463B747B6993F90A3053
:100CC000002B40F3D7807B699888FA7C7B7C1344A7
:100CD000DBB25B42DBB25AB27B691B7C97F9121024
:100CE000FFF791FD03461A467B699A807B69D88895
:100CF000FA7C7B7C1344DBB25B42DBB25AB27B6989
:100D00001B7C97F91210FFF7B9FD03461A467B6961
:100D1000DA807B699B88FB837B69DB887B83FB8B29
:100D2000BB837B8B3B837B691B7C032B5AD801A243
:100D300052F823F0450D0008610D0008890D0008E8
:100D4000BD0D00087B6993F90A309AB2BB8B13443E
:100D5000BB8397F913309AB23B8B13443B8341E03A
:100D600097F913309BB2FA8BD31AFB83FB8B0133B9
:100D7000FB83BB8B0133BB837B6993F90A309AB247
:100D80003B8B13443B832DE07B6993F90A309BB284
:100D9000FA8BD31AFB83FB8B0133FB83BB8B0133B1
:100DA000BB8397F913309BB27A8BD31A7B837B8BEF
:100DB00001337B833B8B01333B8313E097F9133083
:100DC0009AB2BB8B1344BB837B6993F90A309BB205
:100DD0007A8BD31A7B837B8B01337B833B8B0133F1
:100DE0003B8300BFB88B7A8BF98B3B8B0093034618
:100DF0007868FFF7B1FB0346002B02D197F910305A
:100E00003AE07B6900221A727B6900225A727B6881
:100E100093F8763019467869FFF7D9FE0346FB73DD
:100E20007B6893F8773019467869FFF7D0FE034660
:100E3000BB73FB7B00221946786800F021F8BB7B6E
:100E400001221946786800F01BF801217869FFF744
:100E5000BEFE0346002BECD17B6993F9093097F96C
:100E600013209A4200DDD2E700BF7B699A7B7B6842
:100E700083F8922097F9103018462037BD4680BD80
:100E800080B588B002AF78600B46FB701346BB702C
:100E90007B6860333B61FB78FB753B6993F90830F5
:100EA0007B753B6993F909303B753B6993F90A30CF
:100EB000FB73FA7B7B7DD31AFB73FB7BBB75FA7DDF
:100EC000FB7B9A4201D2FB7DBB753B699B88BB8152
:100ED0003B69DB887B8197F9151097F914203B69F2
:100EE0001B7CB889FFF78FFC0346BB8197F915106F
:100EF00097F914203B691B7C7889FFF7BFFC0346F8
:100F00007B81BB78002B10D03B699A7B7B6883F890
:100F10009220BB7D98B23B691B7C7A89B98900938A
:100F200003467868FFF758FA13E03B695B7B002BB8
:100F30000FD13B69DA7B7B6883F89220BB7D98B246
:100F40003B691B7C7A89B989009303467868FFF76F
:100F500043FAFA7DFB7B9A4209D3FA7DFB7BD31AD5
:100F6000FB7500237B753B7D01333B759DE700BF1F
:100F70007A7DFB7D13447B7597F915203B691A72C6
:100F800097F914203B695A7200BF1837BD4680BDDF
:100F900080B586B000AFF860084611461A46034691
:100FA0007B810B463B811346FB800023FB82FB6861
:100FB0007A89A3F86420FB683A89A3F86620FB8845
:100FC0001946F86800F020F838613B69002B05D01D
:100FD0003969F868FFF746FE0346FB82FB8A18462C
:100FE0001837BD4680BD80B483B000AF78600B4633
:100FF000FB70FB787A6813447B607B681B7818462B
:101000000C37BD4680BC704780B586B000AF7860B5
:101010000B467B807B689B6D7B617B6917337B61B3
:101020007B88FF2B2AD87B88602B07D97B68B3F895
:1010300088301A467B6913447B6109E07B88402B2A
:1010400006D97B68B3F886301A467B6913447B6106
:101050007B6901331B78002B4ED07B691B781A46C5
:101060007B88934202D17B69023349E07B6901337B
:101070001B781A467B6913447B61E9E77B68B3F808
:101080008A301A467B6913447B617B693B6100218E
:10109000386900F039F803461A467B6913447B61CE
:1010A0000221386900F030F80346FB813B690433C4
:1010B0003B61FA897B889A42E9D37B691B78FB8183
:1010C000FB891B02FB817B6901331B781A46FB8974
:1010D0001343FB81FB89002B10D0FA897B889A424D
:1010E00002D17B6903330BE07B6902331B781A461C
:1010F0007B6913447B61E0E700BF00E000BF002391
:1011000018461837BD4680BD80B485B000AF786002
:101110000B46FB70FB787A6813447B607B681B7816
:10112000FB817B6801337B60FB891B02FB817B6851
:101130001B781A46FB891344FB81FB891846143738
:10114000BD4680BC704780B584B000AF7860396020
:101150007B686033FB60FB683A681A60FB680022BA
:101160001A737B6893F878301946F868FFF72FFDFB
:1011700003465AB2FB689A727B6893F87930194635
:10118000F868FFF724FD03465AB2FB68DA727B6801
:1011900093F89220FB689A73FB689B7B002B0CBF33
:1011A00001230023DBB21A46FB68DA7300BF103755
:1011B000BD4680BD90B482B000AF044608461146DB
:1011C0001A462346FB800346BB800B467B801346B2
:1011D0003B807A88BB889A420DD23A88FB889A4233
:1011E00001D9012314E07A883B889A4201D901236E
:1011F0000EE000230CE03A88FB889A4207D97A88EF
:101200003B889A4201D9012302E0002300E0002339
:1012100018460837BD4690BC704780B489B000AF0F
:10122000F860084611461A4603467B810B463B810F
:101230001346FB803B89FB76FB7E03F00703FB76BE
:1012400001233B763A7EFB7E02FA03F33B760023D2
:10125000BB7600237B76FB6893F89230012B01D894
:101260003B7EBB76FB6893F89230012B01D03B7E2E
:101270007B763B89FB82FB8A23F00703FB82FB68BA
:101280001B681B7C1A46FB8A02FB03F3FB82FB688C
:101290005B6BFB61FB8AFA691344FB617B89FA692A
:1012A0001344FB6197F82830002B17D1FB691A789B
:1012B000BB7E1343DAB2FB691A70FB691A787B7E36
:1012C0005340DAB2FB691A70FB690133FB61FB889A
:1012D000013BFB80FB88002BE8D138E0FB691A78E2
:1012E000BB7E1343DAB2FB691A70FB691A787B7E06
:1012F0005340DAB2FB691A70FB7E0133FB76FB7E4A
:1013000003F00703FB76FB88013BFB80FB7E002B91
:1013100014D1FB685B8F1A46FB691344FB61FB68C1
:1013200093F89230012B01D80123BB76FB6893F828
:101330009230012B08D001237B7605E0BB7E5B0059
:10134000BB767B7E5B007B76FB88002BC6D100BF23
:101350002437BD4680BC704780B483B000AF78604E
:101360007B6808221A70034B18460C37BD4680BCB8
:10137000704700BFCC01002080B582B000AF78601C
:10138000396000213868FFF72EFE03461A467B6855
:101390001A7001213868FFF726FE03461A467B685B
:1013A0005A7002213868FFF71EFE03461A467B6812
:1013B0009A7003213868FFF716FE03461A467B68C9
:1013C000DA7004213868FFF70EFE03461A467B6880
:1013D0001A7105213868FFF706FE03461A467B6836
:1013E0005A7106213868FFF7FEFD03461A467B68EE
:1013F0009A7107213868FFF7F6FD03461A467B68A5
:10140000DA7108213868FFF7EEFD03461A467B685B
:101410001A7209213868FFF7E6FD03465AB27B6865
:101420005A720A213868FFF7DEFD03465AB27B681C
:101430009A720B213868FFF7D6FD03465AB27B68D3
:10144000DA720C213868FFF7CEFD03465AB27B688A
:101450001A730D213868FFF7C6FD03465AB27B6840
:101460005A730E213868FFF7BEFD03465AB27B68F7
:101470009A730F213868FFF7B6FD03465AB27B68AE
:10148000DA7310213868FFF7AEFD03465AB27B6865
:101490001A7411213868FFF737FE03461A467B6835
:1014A0005A8213213868FFF72FFE03461A467B68DD
:1014B0009A8215213868FFF727FE03461A467B6893
:1014C000DA8200BF0837BD4680BD80B584B000AF6A
:1014D00078600023FB737B6893F838307B737B68FC
:1014E00093F83930BB737B681B685B7C3B73BA7BBA
:1014F000FB7B1946786800F012F8FB7B0133FB7325
:10150000BB7B0133BB73FA7B7B7B9A4203D2BA7BF2
:101510003B7B9A42EBD300BF1037BD4680BD80B500
:1015200086B002AF78600B46FB701346BB707B68D9
:101530001B681B7CFB73FB78BB817B685B6BBB60B0
:10154000FB7B9BB2BA8902FB03F3BB81BB89DB0047
:10155000BB81BB89BA681344BB60F97BBA78BB68AE
:1015600000930B460021786800F08FF800BF103719
:10157000BD4680BD80B485B000AF78607B681B68D5
:10158000BB607B6893F83830FB81FB89DB00FB8113
:101590007B68FA899A87BB681B7CFB81FB89DB002F
:1015A000FB817B68FA895A877B6893F83930FB8125
:1015B000FB89DB00FB817B68FA89DA877B6893F81B
:1015C0003830FB81FB897A6892F839201344BA6875
:1015D000527C934207DDBB685B7C1A467B6893F8BC
:1015E0003930D31AFB81FB89DB00FB817B68DA8F02
:1015F0007B68A3F840207B68B3F840207B68A3F8A1
:1016000042207B68B3F84220FB8913449AB27B687E
:10161000A3F84220BB689A8A7B68A3F84420BB6881
:10162000DA8A7B68A3F8462000BF1437BD4680BC29
:10163000704780B582B000AF78607868FFF79AFF96
:1016400000BF0837BD4680BD80B582B000AF78606E
:101650007B680022A3F848207B68B3F844207B68AD
:10166000A3F84A207B68B3F840207B68A3F84C209D
:101670007B68B3F842207B68A3F84E207868FFF7B8
:1016800038F900BF0837BD4680BD90B585B000AFC2
:101690007860084611461A460346FB700B46BB703D
:1016A00013467B70FB787B73BB78BB737B783B7393
:1016B0003B6ABB607B689C6807F1080301220F212D
:1016C0007868A047034618461437BD4690BD90B5CC
:1016D00083B000AF78607B689C68002300220A21F9
:1016E0007868A04700BF0C37BD4690BD90B583B069
:1016F00000AF78607B689C68002300221021786826
:10170000A04700BF0C37BD4690BD90B583B000AF79
:1017100078600B46FB707B689C68FA7800230B218D
:101720007868A04700BF0C37BD4690BD80B584B037
:1017300000AFF860B9607A603B60F86800F014F8B8
:10174000FB68BA689A60FB687A68DA60FB683A6896
:101750001A61FB68BA695A61F86800F033F800BF93
:101760001037BD4680BD000080B483B000AF786004
:101770007B6800221A607B68114A9A607B68104A75
:10178000DA607B680E4A1A617B680D4A5A617B6891
:10179000002283F823207B68002283F826207B68C0
:1017A00000229A617B68FF2283F824207B68FF2255
:1017B00083F8282000BF0C37BD4680BC704700BFAF
:1017C000491D000890B583B000AF78607B689C68C5
:1017D0000023002209217868A04700BF0C37BD46CE
:1017E00090BD80B483B000AF78600B46FB70FB788F
:1017F000002B02D0FB780A2B02D14FF6FF7301E0D9
:10180000FB789BB218460C37BD4680BC704790B53C
:1018100083B000AF78607B681C6900230022192127
:101820007868A047034618460C37BD4690BD80B582
:1018300082B000AF78600B46FB70FB1C1A4601219A
:10184000786800F005F8034618460837BD4680BDA5
:1018500090B585B000AFF8600B467A60FB72FB680C
:101860001C69FA7A7B681721F868A0470346184676
:101870001437BD4690BD90B583B000AF78607B68EB
:101880001C690023002218217868A04703461846E7
:101890000C37BD4690BD90B583B000AF78607B68D3
:1018A000DC680023002219217868A0470346184607
:1018B0000C37BD4690BD90B583B000AF78600B4645
:1018C000FB707B68DC68FA78002316217868A047F3
:1018D000034618460C37BD4690BD90B583B000AFA7
:1018E00078600B46FB707B68DC68FA780023152172
:1018F0007868A047034618460C37BD4690BD90B5A2
:1019000085B000AFF8600B467A60FB72FB68DC685C
:10191000FA7A7B681721F868A047034618461437FF
:10192000BD4690BD90B585B000AF786039603B682A
:101930001B78FB733B6801333B60FB7BFE2B31D094
:10194000FE2B3DDC192B3BDC182B23DA162B02DC9B
:10195000152B03DA34E0172B0ED031E03B681B78EF
:10196000BB737B68DC68BA7BF97B00237868A0478F
:101970003B6801333B6022E03B681B78BB7307F197
:101980000E031A4601217868FFF7B9FF3B6801335F
:101990003B6014E07B68DC68F97B002300227868F8
:1019A000A0470CE03B681B78BB73BB7B1A46292120
:1019B000786800F0D8F93B6801333B6000BFB6E7B8
:1019C00000BF1437BD4690BD90B583B000AF7860BE
:1019D0007B68DC680023002218217868A047034652
:1019E00018460C37BD4690BD90B587B000AFF86083
:1019F0007B600B46FB721346BB72FB7A143B052BD4
:101A00006ED801A252F823F09F1A0008211A00088C
:101A10004F1A00085B1A0008C31A0008CB1A000806
:101A2000334B1B78002B02D0F868FFF7F0FEF86804
:101A3000FFF721FF0021F868FFF7F9FEBB7A19468E
:101A4000F868FFF7F4FE2A4B01221A704AE0BB7ACD
:101A50001946F868FFF7EBFE44E0254B1B78002B96
:101A600002D0F868FFF7D3FE7B687B610AE07A69F1
:101A70001821F86800F08AF9BB7A183BBB727B69C1
:101A800018337B61BB7A182BF1D8BB7A7A69194677
:101A9000F86800F07BF9164B00221A7022E0FB6810
:101AA00093F82430FF2B03D1FB68782283F824209D
:101AB000FB681C69BA7AF97A7B68F868A047034624
:101AC00011E00B4B00221A700CE0094B1B78002B25
:101AD00002D0F868FFF79BFE054B00221A7001E068
:101AE000002300E0012318461C37BD4690BD00BF0F
:101AF000CC05002090B583B000AF78607B685C694E
:101B00000023002228217868A0477B68DC68002336
:101B1000002214217868A04701224B21786800F048
:101B200022F97B681B681B791A462921786800F026
:101B30001AF900224B21786800F015F97B681B68C0
:101B40001B791A462921786800F00DF901224B21F2
:101B5000786800F008F97B681B685B791A462921D0
:101B6000786800F000F900BF0C37BD4690BD80B426
:101B700083B000AF786039607B683A681A607B6830
:101B80001B689A7C7B6883F8222000BF0C37BD4617
:101B900080BC704780B584B000AFF8607B600B46B6
:101BA000FB721346BB72BA7AF97A7B68F86800F068
:101BB00023F80346002B01D0012314E0FB7A092B04
:101BC00009D00A2B0CD1F868FFF794FF0849F86890
:101BD000FFF7A8FE06E00749F868FFF7C8FF01E035
:101BE000002300E0012318461037BD4680BD00BF2A
:101BF000204D0008684D000880B586B000AFF86041
:101C00007B600B46FB721346BB72FB7A0B3B042BCB
:101C100000F28A8001A252F823F000BF311C0008B4
:101C2000291D00084B1C00087D1C00089D1C000895
:101C3000BB7A002B04D14049F868FFF773FE75E0CA
:101C40003E49F868FFF76EFE70E0BB7A002B0AD1C0
:101C50003B49F868FFF766FEFB681B689A7CFB68E7
:101C600083F8222062E03749F868FFF75BFEFB68E3
:101C70001B68DA7CFB6883F8222057E0F868FFF7DE
:101C8000A3FE8121F868FFF728FEBB7A1946F868A1
:101C9000FFF711FEF868FFF7FEFD47E0F868FFF771
:101CA00093FE7B685B79FB75FB7DDB00FB75FB6856
:101CB00093F82220FB7D1344FB754021F868FFF761
:101CC0000CFEFB7D1B09DBB243F01003DBB21946AF
:101CD000F868FFF702FEFB7D03F00F03DBB2194645
:101CE000F868FFF7E8FD7B689B7963F04F03DBB290
:101CF0001946F868FFF7DFFD7B681B79BB757B68C9
:101D00001B683B61BB7DDB00DBB23A691946F868B2
:101D1000FFF7F5FDBB7A013BBB72BB7A002BEBD121
:101D2000F868FFF7B8FD01E0002300E00123184642
:101D30001837BD4680BD00BF584D0008604D0008F3
:101D4000104D0008184D000880B485B000AFF86051
:101D50007B600B46FB721346BB7200231846143798
:101D6000BD4680BC704790B583B000AF78600B462D
:101D7000FB701346BB707B685C69BA78F978002306
:101D80007868A04700BF0C37BD4690BD90B585B0C0
:101D900000AFF8600B467A60FB72F868FFF76BFDE6
:101DA0004021F868FFF743FDFB681C69FA7A7B68FD
:101DB0001721F868A047F868FFF729FD00BF14371E
:101DC000BD4690BD80B483B000AF78607B680022D0
:101DD00083F8262000BF0C37BD4680BC704780B416
:101DE00083B000AF78600B46FB70FB78002B02D00D
:101DF000FB780A2B02D14FF6FF736EE07B6893F8F5
:101E00002630002B45D1FB78FB2B08D97B680522B7
:101E100083F82620FB7803F00103FB7032E0FB78A7
:101E2000F72B08D97B68042283F82620FB7803F07F
:101E30000303FB7026E0FB78EF2B08D97B680322B5
:101E400083F82620FB7803F00703FB701AE0FB7889
:101E5000DF2B08D97B68022283F82620FB7803F069
:101E60000F03FB700EE0FB78BF2B08D97B680122C3
:101E700083F82620FB7803F01F03FB7002E0FB7859
:101E80009BB22AE0FB789AB27B681A844FF6FE7305
:101E900023E07B6893F82630013BDAB27B6883F855
:101EA00026207B681B8C9B019AB27B681A84FB7886
:101EB00003F03F03FB707B681A8CFB789BB21343E3
:101EC0009AB27B681A847B6893F82630002B02D084
:101ED0004FF6FE7301E07B681B8C18460C37BD463D
:101EE00080BC7047FEE7704770B5044600F0FEF80E
:101EF0000546601C02D004480078044400F0F6F85F
:101F0000401BA042FAD370BD080000202DE9F84F15
:101F1000DFF8B8910024A9F1040B23460F2709F13B
:101F2000040AABF1040EC9E00125A5402A40AA42EB
:101F30007DD1674ED1F804C0ACEB0608B44532D071
:101F400014DCBCF1030F3AD009DCBCF1000F2AD03D
:101F5000BCF1010F1CD0BCF1020F31D11DE0BCF16E
:101F6000110F17D0BCF1120F2AD119E0B8F5881F54
:101F700019D006DCB8F5803F15D0B8F5801F1FD109
:101F800011E0B8F5001F0ED0B8F5041F18D10AE013
:101F9000CB6815E0CB681B1D12E0CB6808330FE05F
:101FA000CB680C330CE08B682BB1012B4FF008038E
:101FB00003D0456104E0042302E0056100E0002352
:101FC000FF2A01D8064601E000F104064FEA840525
:101FD00001D9A5F12005D6F8008007FA05FC28EA0A
:101FE0000C0803FA05F548EA0508C6F800804D68B4
:101FF000ED0062D5374DAE6946F00106AE61AD69C0
:1020000024F0030605F001050095334D06EB050CA1
:10201000DCF80850A607360F07FA06F825EA080587
:10202000DFF8B880404503D14FF0000817E044E0E6
:10203000DFF8AC80404502D14FF001080FE0DFF837
:10204000A480404502D14FF0020808E0DFF89880F4
:10205000404502D14FF0030801E04FF0040808FAB0
:1020600006F848EA0508CCF808804D68D9F8006001
:10207000ED024D4601D5164300E096432E604D68B3
:10208000DAF80060AD02554601D5164300E09643EC
:102090002E604D68DBF80060AD035D4601D5164348
:1020A00000E096432E604D68DEF80060ED03754653
:1020B00001D5164300E096432E60641C0D682A4645
:1020C000E5407FF431AFBDE8F88F0000080401401F
:1020D0000000111000100240000001400008014003
:1020E000000C0140001001400014014001488068CC
:1020F000704700000800002070B5040025D094F857
:102100003D00002520B984F83C50204600F04EF9EF
:10211000242084F83D002068016821F0010101605D
:102120002068016841F4004101602068016821F4E1
:102130000041016000F088FA4D4A6168914201D87F
:102140004C4900E04C49884201D2012070BD4B4906
:102150002368B0FBF1F15E6826F03F060E435E6037
:102160006368934206D94FF4967359434FF47A73D8
:10217000B1FBF3F12368491C1E6A26F03F06314388
:1021800019626168914210D84900401EB0FBF1F21B
:10219000521CC2F30B02042A01D2042022E0B0FB3D
:1021A000F1F0401CC0F30B001CE0A268F2B301EB9D
:1021B000C10303EB0116431EB3FBF6F35B1C43F4B0
:1021C00080431B0549D092B301EBC10202EB011120
:1021D000401EB0FBF1F0401CC0F30B0040F4804007
:1021E00040F400402168CA694CF6FF739A431043DB
:1021F000C861D4E9071001432068026822F0C002D8
:1022000011430160D4E9030101432068826848F268
:10221000FF339A4311438160D4E9050108432168E3
:10222000CA6822F0FF021043C86001E00EE016E029
:102230002068016841F0010101602564202084F8D4
:102240003D00256384F83E50002070BD01EB41063F
:10225000431EB3FBF6F35B1CB3E70120C2E701EBBF
:102260004101401EB0FBF1F0401CC0F30B00B7E78A
:10227000A086010080841E0000093D0040420F003E
:102280002DE9F84F1F4690468A460446DDF828900F
:10229000FFF72CFF054694F83D0020287FD1192335
:1022A000012240492046009500F03AFC002876D1F2
:1022B00094F83C00012872D0012084F83C0020688A
:1022C0000168C90703D1016841F00101016020687C
:1022D000016821F400610160212084F83D00102094
:1022E00084F83E0000262664C4F824806785608D4B
:1022F00020852D48E0622B464A465146204600F094
:1023000095FB90B9206841698069009036E02A46C3
:102310004946204600F0AAFC50B1206C042804D1A4
:102320002068016841F4007101600120BDE8F88F68
:10233000606A216800780861606A401C6062618D93
:10234000491E6185218D491E89B221852268536904
:10235000DB435B070BD451B100781061606A401C0D
:102360006062608D401E6085208D401E20852A465B
:102370004946204600F0A8FB0028CED1208D002839
:10238000C5D154F83D0B016841F400710160202073
:1023900004F81E09E67766770020C7E7FFE702200A
:1023A000C4E70000020010000000FFFF10B586B077
:1023B0000021009101910291039100680F49884228
:1023C0001AD10F4CA06940F00800A061A0696946CD
:1023D00000F008000490C02000901220019003201B
:1023E00003900848FFF792FDE06940F40010E061B7
:1023F000E06900F40010049006B010BD00540040E5
:1024000000100240000C014002488168027811442B
:102410008160704708000020074810B5016841F04E
:1024200010010160032000F067F80F2000F006F8AB
:1024300000F024F8002010BD0020024070B50D4DC2
:1024400004464FF47A712878B1FBF0F00A49096824
:10245000B1FBF0F000F0BEFA48B9102C07D2002210
:102460002146501E00F028F800206C6070BD01204D
:1024700070BD000008000020140000200C4808B5C2
:10248000816941F001018161816901F001010091DF
:10249000C16941F08051C161C06900F08050009075
:1024A0000448416821F0E06141F00071416008BDDD
:1024B0000010024000000140F0B40E4B1B680C46B7
:1024C000C3F30223C3F10705042D00D90425191D08
:1024D000072901D2002300E0DB1E012606FA05F1E0
:1024E000491E214099409E40761E16403143F0BC63
:1024F00000F017BC0CED00E0064900F00702086888
:102500004FF6FF03184040EA0220034A10430860D8
:10251000704700000CED00E00000FA052DE9F047DF
:102520000F46050061D0434E306800F00700B84206
:1025300009D2306820F0070038433060306800F07E
:102540000700B84251D128683B4C810712D540079B
:1025500003D5606840F4E06060602878000703D528
:10256000606840F4605060606068A96820F0F00026
:10257000084360602878C00728D06868012810D018
:102580002168022810D0890700292EDA616821F01D
:10259000030101436160FFF7A9FD804641F28839DC
:1025A0000DE021688903EFE78901EDE7FFF79EFD64
:1025B000A0EB0801494502D90320BDE8F087606817
:1025C000696800F00C00B0EB810FEFD1306800F0CB
:1025D0000700B8420BD9306820F00700384330605C
:1025E000306800F00700B84201D00120E5E7287804
:1025F000400705D56068E96820F4E0600843606042
:102600002878000706D56068296920F4605040EA00
:10261000C100606000F028F86168084AC1F3031146
:10262000515CC8400649086006480068FFF706FF8D
:102630000020C2E70020024000100240C42E000823
:10264000140000200C000020044805490068496877
:10265000044AC1F30221515CC840704714000020B5
:1026600000100240D42E00080E4A51680E4801F0B6
:102670000C03042B11D0082B0FD10C48C1F383435A
:10268000C903C05C0AD55168084AC1F34041921E93
:10269000515C054A5043B0FBF1F070470449484390
:1026A000704700000010024000127A00B42E0008AB
:1026B00000093D002DE9F84F040070D02078C04D8E
:1026C000C00749D06868C0F38100012807D0686856
:1026D000C0F38100022809D16868C00306D52868C4
:1026E000800339D560680028E7D035E06068B0F530
:1026F000803F0BD010B1B0F5A02F11D0286820F486
:1027000080302860286820F4802002E0286840F4A7
:1027100080302860606890B1FFF7E8FC06460AE068
:10272000286840F480202860F0E700BFFFF7DEFC57
:10273000801B642873D828688003F7D50CE0FFF766
:10274000D5FC064605E000BFFFF7D0FC801B6428DF
:10275000F0D828688003F7D420789A4E80074FF08D
:1027600001094FF0000839D5686810F00C0F07D048
:102770006868C0F38100022809D16868C00306D4E4
:102780002868800714D52069012808D110E0206945
:10279000B0B1C6F80090FFF7A9FC074605E00AE1D2
:1027A000FFF7A4FCC01B0228C4D828688007F7D50F
:1027B0002868616920F0F80040EAC10028600DE057
:1027C000C6F80080FFF792FC074604E0FFF78EFC96
:1027D000C01B022823D828688007F7D42078000778
:1027E0002CD57948A169D9B1C0F80090FFF77EFCDB
:1027F000074604E0FFF77AFCC01B02280FD8686A7E
:102800008007F7D571484FF4FA510068B0FBF1F03A
:10281000009000BF0098411E0091FAD20EE080E0C7
:10282000C0F80080FFF762FC074604E0FFF75EFC9B
:10283000C01B022875D8686A8007F7D42078400743
:1028400060D5E8690027C00008D4E86940F08050EE
:10285000E861E869012700F0805000905C48016859
:10286000C90513D40168834641F480710160FFF704
:102870003DFC824606E000BFFFF738FCA0EB0A00F3
:1028800064284ED8DBF80000C005F5D5E0680128C3
:102890000AD008B1052813D0286A20F00100286268
:1028A000286A20F0040002E0286A40F00100286253
:1028B000E06841F2883B98B1FFF718FC82460BE0D4
:1028C000286A40F004002862EEE700BFFFF70EFC24
:1028D000A0EB0A0159455AD8286A8007F6D50CE0C2
:1028E000FFF704FC824605E0FFF700FCA0EB0A01BD
:1028F00059454CD8286A8007F6D41FB1E86920F002
:102900008050E861E06988B36968C1F381010229F8
:1029100044D00228C6F8608004D0FFF7E7FB0446E5
:1029200038E034E0FFF7E2FB074604E0FFF7DEFBA8
:10293000C01B02282BD828688001F7D4206AB0F584
:10294000803F05D16868A16820F4003008436860C2
:10295000D4E908010843696821F4741108436860E8
:10296000C6F86090FFF7C2FB044606E025E000BF12
:10297000FFF7BCFB001B022809D828688001F7D5A7
:102980001BE000BFFFF7B2FB001B022802D90320A7
:10299000BDE8F88F28688001F4D40EE00128F7D054
:1029A0006868226A00F48031914204D1616A00F4BF
:1029B0007010884201D00120EAE70020E8E700001B
:1029C00000100240000042428004424214000020F5
:1029D0000070004010B5401EB0F1807F01D301208F
:1029E00010BD4FF0E02460610F21601700F099F9ED
:1029F0000020A06107202061002010BDFEE70168D3
:102A00004A69D24352050FD46FF480624A610021B3
:102A100040F8301F202242738173026942F00402A1
:102A2000026101730120704700207047F8B5044629
:102A3000C06A1E460D461746082807D0012805D053
:102A400010F5803F02D0206B122804D12068016865
:102A500041F480710160134600224FF001112046BD
:102A6000009600F05DF840B120680068C00502D50E
:102A70004FF4007020640320F8BD2069B0F5804F4A
:102A80000ED00620216800EAD51040F0F000086161
:102A900033463A460B49204600F08AF878B902E0FE
:102AA00005F0FE0000E0E8B2216808610549334600
:102AB0003A46891F204600F07BF80028DCD0012030
:102AC000F8BD00000800010070B516460D4604462A
:102AD0001EE02046FFF793FF08B1012070BD681C7F
:102AE00016D0FFF703FB801BA84200D885B92068E9
:102AF0004069C04340070BD5002044F8300F202127
:102B00006173A073216941F0200121612073E4E722
:102B100020684069C0434007DBD4002070BD00003E
:102B20002DE9F047984617460D460446C1F307467F
:102B3000DDF820902AE000BFB8F1FF3F26D0FFF774
:102B4000D5FAA0EB0901414502D8B8F1000F1DD11B
:102B50002068012E16D0806925EA00000004000CD0
:102B600012D00020B84211D1002044F8300F2021AB
:102B70006173A073216941F020012161207301205C
:102B8000BDE8F0874069E7E70120EBE72068012E08
:102B90000AD0806925EA00000004000C06D000205D
:102BA000B842C9D00020EBE74069F3E70120F7E71E
:102BB0002DE9F047984616460D4604464FF00009A9
:102BC0004FF0200AC1F3074723E020684069C04363
:102BD000400515D42068016841F400710160216846
:102BE0006FF480604861C4F8309084F83DA084F8A8
:102BF0003E90216C41F00401216484F83C9021E076
:102C0000701C06D0FFF772FAA0EB0800B04203D8A0
:102C100016B1012F1FD021E02068012F15D0806947
:102C200025EA00000004000C18D000BF44F8309FD3
:102C300084F80DA084F80E90216941F020012161F3
:102C400084F80C900120BDE8F087406925EA000077
:102C50000004000CEAD12068406901E02068806926
:102C600025EA00000004000CAFD1ECE770B5164671
:102C70000D4604461EE02046FFF7C1FE08B10120C4
:102C800070BD681C16D0FFF731FA801BA84200D82F
:102C900085B920684069C04300060BD5002044F880
:102CA000300F20216173A073216941F0200121615F
:102CB0002073E4E720684069C0430006DBD40020AD
:102CC00070BDFEE7FEE770477047FFF79DBB10B58C
:102CD00090B028216846FDF784FA14210AA8FDF770
:102CE00080FA02200090012004901020002405901A
:102CF00007946846FFF7DEFC08B172B6FEE70F20C6
:102D0000CDE90A040C940D9400210AA80E94FFF753
:102D100005FC002801D072B6FEE710B010BD704768
:102D2000FEE70907090E002804DB00F1E02080F827
:102D30000014704700F00F0000F1E02080F8141D2F
:102D400070470000A6B0FFF767FBFFF7C0FF1C4805
:102D5000816941F004018161816901F004012591DB
:102D6000816941F0080181618069164900F008001D
:102D7000259015484FF480420160144941600021BC
:102D80008160C0E9031241618161C1610162FFF7A5
:102D9000B3F908B172B6FEE70B49684600F05AF87D
:102DA0000BA30A2228216846FDF7A2FB0A220AA3E8
:102DB00011466846FDF7B6FB6846FDF7F8FBFEE7EF
:102DC000001002400054004018000020A0860100BE
:102DD0007538673200000000E4BDA0E5A5BD000025
:102DE000F8B51A4C1D461829237814D004DC142990
:102DF00029D0172925D102E0192922D117E0144939
:102E00000020194402E02E5C0E54401C9042FADB74
:102E10009818207017E00020207002E00A20FFF7C9
:102E200063F8606890F83D002028F7D10BE04FF080
:102E3000FF31009190F82410054A6068FFF720FAEE
:102E400008B10020F8BD0120F8BD000000000020FE
:102E50006C00002010B504460D480E4B0E4A416030
:102E60000E492046FDF73CFC2046FEF730FC0021D1
:102E70002046FEF74AFC0A492046FDF7A6FB2046FD
:102E8000FDF739FA2046BDE81040FDF790BB000081
:102E900000000020491D0008E12D0008DC2E00087C
:102EA000E82E000810B5FDF721FA4FF0000101608F
:102EB00010BD010202030405060708090A0B0C0DE8
:102EC0000E0F1010000000000000000001020304BB
:102ED0000607080900000000010203043316000879
:102EE00049160008890A00089B0002030404030431
:102EF000050B0AFFFD06FD07FE014F02A503CD20CD
:102F00000500440A2107723DCA310A220735648B45
:102F1000C412230D773C9C52922ED5A594240024F4
:102F20000C86B47B7CC5F425D13100251178BC9C7E
:102F30000C52A22483322889120D4A00260C76BC3A
:102F4000DB28698E52254A02270632658A01280B42
:102F50009435AB244AA25A9405290C94358B2CCA7B
:102F6000A24A9444002A0B753C6B2AB2262B190204
:102F70002B0B56C4AB0C89A60C89002C0733B59AD1
:102F800044012D0616D48B012E06223D0A012F0B7B
:102F900085B5BB521665519601300A76BC1B25F2E9
:102FA000942800310874BDAB44893A320A76BC1BC0
:102FB0002592B2B601330B76BC8BADA64152A2006E
:102FC000340D76BCBB3C465228D9322401350D76EF
:102FD000BCCB1143352843A44401360C76BC1B25D9
:102FE0004395C8942800370D76BC8B0DC96A489666
:102FF000211900380C76BC1B259212259212053936
:103000000C76BC1B2532A51A9228003A07623D0AAD
:103010000D113B0973349A1A2551003C0B75BDBB49
:10302000A80DC9900C093D0736CC8B0D1B3E0C75C5
:10303000BD8B0CC9900C89DA003F0B76BC1B259226
:10304000B21A4B04400A76BC1B2552DD2005410D07
:10305000773CEC0CCD922849874C0B420B76BC4B4D
:10306000259297485E00430E76BC1B25D2900CC972
:1030700090285100440976BC4B25F2BC00450975E7
:103080003CCB2DDF72014609753CCB2DDF6A004732
:103090000C76BC1B25D29054925201480A76BC8B08
:1030A000C83C46A600490672BCC9034A0E76BC3B22
:1030B0002443322443242951004B0C76BC8B4849CD
:1030C000E44C4A4A014C08753C8BAC77014D0F78B3
:1030D000BC8C0C958725D1100DD190004E0A76BC82
:1030E0008B581D53C9144F0A76BC1B25F294280037
:1030F000500C76BC4B25322F19922100510B96AC07
:103100001B25F29468191C520A76BC4B259297C86D
:1031100014530C76BC1B25D6100D951205540F7652
:10312000BC8B29433224433224432200550976BC08
:103130008BC8A74401560A76BC8BC84BA2650057C2
:103140000F78BC8C245112255112A5325500580C11
:1031500076BC8B484AB44C89A400590D76BC8BC808
:10316000946819922111005A0A753C4B2D8AA3BA12
:10317000005B0894358BA94F025C0D85B58B2C4301
:10318000B20CC932240B5D0894350BA94F035E08BD
:1031900036E4AB4C89025F0616B48B01600843DD50
:1031A0008A244A026109553CDB0C499644620A753F
:1031B0003C8B2C5312CB026309553CDB24D13244A7
:1031C0006409753CBBCA6249046509553CDB241D92
:1031D0003244660A753CEB248B95AC04670A752C67
:1031E0009BC592686902680A753C8B2C5312970044
:1031F000690772BC89780C6A0A942BAA0C8B3A2B4B
:10320000006B0A753C8BACB2464A016C0672BCC9B5
:10321000036D0B58BCCCA5A2244AA2146E08553CE1
:103220000B2571096F0A553CDB24B1A40900700A13
:10323000752C0B25B12C59067109752C9BC592680C
:10324000057209553C8B54CA6A007308553CDB3D36
:103250005F00740A753C9B2C56B21A1A7508553CCF
:103260008BC425117609553C8BC4324500770C5828
:10327000BC8C245112A5325500780A56BC8B34D12F
:10328000323509790A752C8BC425D1D2047A0855B8
:103290003C4B392D0B7B109635FC28433224CEA0B5
:1032A0000CC9900C0E7C0792B6CA83007D1196352E
:1032B000CC0CCA900CC9E028433224CE007E0827EB
:1032C00064DC444D007F050044080000000C5939BF
:1032D0000849706B0889FFFF2013071855CD114E60
:1032E00000092A543D4A3A064E0A159A343D2423D1
:1032F00065A48CAC4119292365A40C1D034E0B1742
:103300009A34CD3143325246CE28298625199491DC
:10331000325286004E0D169A34CD31C3324A46C918
:1033200030154E6A500DC94819024E2A149A343D80
:103330000DAA254D35242365A48C949132044E2D7D
:10334000159A343D244347299222291E35242365AA
:10335000A40C014E3A189A349D1A9662F0902151AD
:103360008644598A445524833434014E3B159A349B
:10337000BD8C96A1638664A40C1E31282365E818D1
:103380004E48169A343D242365948C12655146C9E3
:103390002851561D51004E4B169A343D242365F09A
:1033A0008891324A1665480DA941D1004E5F199A9D
:1033B000343D24C352244B524C4954244B912CC5C8
:1033C000B00C8947004E66139A34BD281D512CC994
:1033D000A0241EB39EB30C024E86169A34CD31A3A0
:1033E00064940CCF2819292365A40CD310004E8BAC
:1033F000179A343D2443C728A5212979C8A074D43D
:10340000A08C9A21004E8E169A34DD1183325246DA
:10341000CAD03143325246CAA819024E91149A3486
:10342000DD11E3FB9865A42443A22C4A6125014EDB
:1034300092149A34CD31CBC81A126548946F514614
:10344000CAC7004E9B139A34AD244B8714C912652A
:10345000D298478C790C4EA4179A343D2443C7A8C0
:1034600096215528C5528C92E1499CA1014EBA166D
:103470009A343D242365A48C9451520C4B31A89668
:1034800021352C4ECE169A34AD1A1265489421512E
:103490009632A54C55248AA4024ED6169A34AD1AFB
:1034A00092D2926451912AA58A2519944449324EA8
:1034B000E5179A349D0C8952A852CA902843A21449
:1034C00089A40C4FF12C4EEA149A34AD2483AA48F7
:1034D000592955A1AC530A2551004EEC149A34AD2C
:1034E000148D92CE4A94949252524A4A49354EF6DD
:1034F000139A34AD9486A44A8AC42992B52C594FA4
:10350000004EFD169A34AD384B9128A9A658922C3E
:1035100051524A9A9216004F18199A34ADA49464E5
:10352000483A4419126548154B522C45522445041B
:103530004F1A149A343D0DAA654855C558C7A816A8
:10354000A5B092004F20169A34AD1A922A599C2C9D
:103550005186A452864449298E004F46149A34ADB0
:10356000544AA1A4AC2CA5A494244B464A064F5C13
:10357000189A34AD14C35225A5A788126548942122
:10358000B112654894014F60159A34AD14C352A529
:10359000AC22594B294552242B47004FDD159A3454
:1035A000AD544AA1A4AC2C596589B324A5A4480AFA
:1035B0004FE1149A34AD54CA28E9909192252325FD
:1035C0004B29490650A8199A349D14AAA44986B4D7
:1035D0002829922229A2A4488A5429292250CF18A6
:1035E0009A34AD448FAA438AA448B25429291A2593
:1035F00029254552005145169A343D2443C72CC90C
:10360000902C5EB114C352244A52595146189A3430
:10361000BD144B52A4CA86A4189C92528A9262503E
:1036200092CA025165169A345D8D9491325246CAFF
:1036300028290625199245191C516C139A347DAD21
:103640000D694A6A5115AA4529AC24005173169A8E
:1036500034AD1A9462E88841192943C72CC5A07279
:1036600086065176139A34ADF218D5900D89E23161
:10367000638BE20C0D5185169A343D244347295241
:10368000524485120DD5300DD3E000518C169A347A
:103690001D354A9952A694754C52A694A59454137C
:1036A0000051FA159A343D24839252521E31282338
:1036B00065481449F12851FB179A343D2483470C7F
:1036C000CA48193A66480625A5A43C2200520615A8
:1036D0009A34AD442B65489441EA9044191265A58B
:1036E00038025207169A349D6489922A254D522930
:1036F000694A4A8994E111005220149A340DB5CADE
:103700009AB2A6ACC3CA9AB2A6AC29075230149A90
:10371000348DA915A9A22BA9BA92AA50868E680049
:103720005236179A348D144347144DA17448A1EAB8
:103730008AA6AC2949A5065237149A348D494AD134
:10374000154DA1744553D694B5540F524D149A3467
:10375000AD241F335615515274459414DD943852DC
:103760006A139A34ADF2A8A4E88A2871C63A66D9D9
:103770009C0052A1169A34AD8C3C222992E1199CEE
:1037800056A27843A2444E0052A8189A345D1523DD
:1037900065D441A5642992226992222B94211500B7
:1037A0005343169A343D48D648192943C70CC94893
:1037B0001929236508005355159A34ADFA0825E5F3
:1037C000114ACA230665E898211902535A169A34F9
:1037D0009D2C4592A58A5AAA9464C9A0A4944449F0
:1037E000005361159A34BD8CAC41192983C72C2331
:1037F00069589A2119045370149A34ED744AB474B8
:1038000045B4444BB4744532280353BB179A343D36
:103810002483470CCA48193A664986445994C24AD7
:103820000253CC179A34CD31ABA4942A254A522C9A
:1038300049A11489E214CF0253D1149A349D14C9BA
:1038400052281DA38C3CA550D286990353D6149AB6
:1038500034CD3129A55252A5AA94A6A4B2D2D0241F
:1038600053E3118935CD4183344883344883870D30
:103870000A53EA179A34DD11CA902843A20C893200
:10388000241E31B60CA9610153EF159A34CD31A332
:10389000C44A9494925252563252464D0053F016F6
:1038A0009A34BD8C924519928E19F308654894217B
:1038B000F1880053F7159A34DD11CA9078C498C77F
:1038C00028A38E508664900453F8149A34CD312383
:1038D000254B464A9652524A9225A306540C159AF5
:1038E00034CD51C35435C3543585D2144A5335832E
:1038F00003540E149A343D4CD9908C3C2419291D44
:10390000914CC9F2015427179A343D744CA9296B84
:10391000CA9AA22B0D4969880A65B000548C169A80
:1039200034FD0C51A5241D922829A7489A242A5217
:103930004A0554CD169A343D285331241D520C515A
:10394000D12A6BCAAAA6501E552E129A34ADFA2857
:1039500065E89044193A4459FB025546159A343D9E
:103960002443C7A83C2A29A2A2239A2829620956DF
:1039700068149A341D354A99D40C8A47A9AC282971
:10398000939A0056DE159A34CD51C3543585D2141E
:103990004A53284DD50C1F0556E0139A34CD518A51
:1039A000A4789C2225455428CDF05156FD129A3416
:1039B000CD51C354358A54354AAD193E0A56FE13CB
:1039C0009A34CD51C9544545D2C4CAA2C2523C0A08
:1039D0005728109A34BD0C1EA31A1265E990F5659C
:1039E0005730179A349DAC92422A9A242A52A554F1
:1039F000B1244354284306573E159A349D544A2A0D
:103A00002A2D594A494AA9A2A94A830A5740159A18
:103A1000349DAC49A5256952C592144B5248A5C1A5
:103A200003575B169A349D64C9281A2559A20C695C
:103A300051910CA9624A005783139A349DAC3A669F
:103A400094A6A49494921492327857DF199A349DD4
:103A50002C45D231CA12154991144999D214915268
:103A60000C4D025899159A349D2843D221A59452A1
:103A70002859524A151DB27C58F3149A34CD31435B
:103A80003278C498470D8B36244A34015907139A6B
:103A900034ED45CBB60C49C7A4798492F28800591D
:103AA0000D139A349D8C3CA858BED54724853254BA
:103AB000D203591A179A343D24A3EA5106259AB223
:103AC0004219946278866808005927169A343D2472
:103AD0002365E8982119292365941483CA191A5972
:103AE00029169A34DD11833252868E199291324A08
:103AF0008A41E50C0D5934169A349D288353AC86BF
:103B00002619291F3324C5A08A86045939169A34E8
:103B10003D2443C70CC9A0A49692C72CC5A07286A9
:103B2000065979159A349DAC92422A9A246A154D09
:103B3000D9920C4E215D597D169A34AD54CAD0A944
:103B40008A44E91A654894A5489447005982179A0F
:103B500034AD8C148F29A54AA9A2518AA8480A27F6
:103B60008992065B50169A34DD11A364948C92A15D
:103B7000638664A48C945133045B57169A343D24B5
:103B800043470D8B364A46C9D03143326A86005BC3
:103B900058149A34BD0C1EA38C944819926695252E
:103BA0002B47005B66169A34AD943C6A98AA625023
:103BB00046C9D03143326A86005B9A169A343D2456
:103BC00043470D4B470CCAB0444B314C4363015B38
:103BD0009D169A343D2443470D4B470CCAE0118390
:103BE000520C4BD2315B9E159A343D24434725CB72
:103BF0009014AB21F5314B222D015BA2159A343D77
:103C0000244347A59A422992D23093544326005B1D
:103C1000A4169A343D2443470D4B470CC928513E06
:103C20006250868E015BB6169A343D2443470D4B95
:103C3000472C85D5144FE228C933045BBD179A344D
:103C40003D24434715A98E589421290D4969508A6E
:103C5000AC025BF9189A343D4A2A65E892425992BF
:103C600042291AA55092411935015C0F169A343D2C
:103C700024236550524A4A492445520DC9A81902C5
:103C80005C31169A34ADCA9262E8A0444959A52520
:103C9000299252AAD4005C40159A34DD11CA90785A
:103CA0008432F290A4942AC50D4D005C4F159A34CD
:103CB000DD21C9A0744852281E92AE4394E45102FB
:103CC0005C5E159A34DD21C9A0744852A654AAA19D
:103CD0008396A82A005E16149A34AD1A1245ABCA10
:103CE0009432A5E84AAA4255015E26159A34AD944D
:103CF0003C46297994AA239494921A9421005E5503
:103D0000139A34ADF218D5472843D2314AC963D249
:103D1000025E74159A34AD8C3C2251966C4906258E
:103D2000F998411929035E7B179A34AD54C92025AF
:103D30004B522CCA9028436A9012A54A045E8F18F1
:103D40009A343D2843872423254B8644490AA543BA
:103D500086A4181C015E94179A343D2843872423B7
:103D6000A5942AA5CA52A56448868E005E97169A25
:103D7000343D28438724CA90588932241D914CC968
:103D8000F2015EA6139A343D284387A47948BA2CE1
:103D9000A50CD2E4005F00169A34DD118B3224CAE0
:103DA00090281EA31A1265489495005F0F139A3449
:103DB0003D281D352C23452B8664EDAA06055F158D
:103DC0001299344D298BB278D2E0298BB228CD02DA
:103DD0005F53149935BD0C2925299221193A64D4D1
:103DE00041A30E025F55139A34DD1123C523464AC1
:103DF000C7A42DCD92D6285F97169A349D74846AF5
:103E0000C89442493A6450922CA5244A025FAE16E7
:103E10009A34DD949452A3152325899529654A91F6
:103E2000144D0A5FC3159A34FD8C9E71CBB014AA51
:103E3000624A062551862C006000189A34AD54CA97
:103E40009214AA224ACA9A42552843A20C892200F7
:103E50006027179A34AD9486A4A4145D4A2954456A
:103E6000572843A20C1D0160F3159A34AD7454A277
:103E70005451111529A55A92A598AA02620F179AB2
:103E8000343D285D917C496950D2CA94225186A460
:103E9000189A046210159A343D28498724CB554A54
:103EA00095D294B421699C046211149A343D155141
:103EB0004A493E46354445B5528A26056234179A2A
:103EC00034AD244555244AF251655A292994AC68E9
:103ED0009222016240169A344D398363154B922524
:103EE000A5AA94282925352801624B169A343D4805
:103EF000D648193C6250868E199291326A860062C9
:103F000053189A349D64C990448B3224CA90384B1C
:103F10003324CA90345200626B159A34AD54CAD01F
:103F20002DCA902895B30D8932244D056284159AC7
:103F3000349D2843A25C25554A199AE41994E469F2
:103F40000D62A4179A349D64C928AA524A9235C5B5
:103F5000D02483520C4E310862A5169A34AD544ACF
:103F6000E1118D520C1FD1145239A5489C3262D2F6
:103F7000159A349D64A9A163524A4A693A22199458
:103F80006468326309169A349D2843D2414BA20CCF
:103F900049D6144993525C4903636E149A349D6464
:103FA00049F15149912C1D52244F95B23263891722
:103FB0009A349D2843E231C5906429A5E988444993
:103FC0003A64110063A5149A349DAC3AA648942C27
:103FD00051868E4A29AEA40163CF179A349DA674E8
:103FE0004C9128595224454715499114499401632D
:103FF000D2159A349D64C9E231C92A69A2244A9A29
:10400000A448A20C641C159A349DAC928E488A5424
:10401000931449D15129C595346444149A349D644C
:10402000693125A50C8992746549A14465647812AB
:104030009A349DE6512925ABAC2C593E2A150064D3
:10404000AD149A349D64A9A252962C4D4AA22C29F3
:1040500092280364CE189A348D154BD14191525257
:104060008AA42A9221193A664886006536189A343D
:10407000AD14435274A53425299222299222521557
:10408000CD10356570179A348D94294907254DA9AF
:1040900029948E28949494344E026587179A343D5F
:1040A0002443C70CCB9028436A588A51323C893349
:1040B0003465B0189A34AD74D4909486A4E8A062A4
:1040C000498AAAE414A952120065B9139A343D240E
:1040D00043C72C2365A4AD5386D4230065E0179A0B
:1040E00034DD11833252868E199251520C4B312895
:1040F00049650165F6189A343D4AA225E99062891E
:104100008A54911449B144CBA80900662F169A34F9
:10411000DD11CA90788432241D3324C3124D4363C9
:1041200001663E169A34DD11CA90788432241E91BD
:104130002A526543527C0C667A139A341D6545D227
:10414000218992EAA062F9565F006709129A343D0C
:104150002443C72CA3CE59926CF5AD02672C179A55
:10416000343D2443C70CC9281A94D29256154332C1
:10417000528600673A179A34AD444B9164C9522471
:104180004E913845AA942A29CE026765179A343D84
:104190002483470CCAA0A49692C73CC590144993A7
:1041A00028677F179A34AD544A3164C3523585125B
:1041B0001551911449E12C29679C159A34DD114A57
:1041C000CA239494470CCAD0314AC9491A680716C1
:1041D0009A34AD54CA708D92AA519E5253D6A40AF5
:1041E000A51100680F169A34ADA494A4882A65D44A
:1041F0008C9A282986A51829156837159A34ADA4F4
:1042000094A4882AD51339AAA22B94215104683C7E
:10421000139A34AD544AE1951657AAE91AA9A4AAEB
:1042200000684C179A343D644332788432241EA1CE
:104230000C49C728252769006863159A34AD1A927E
:10424000529614AAA78AA6A22B8644A90069FD1437
:104250009A34AD94868E2AF388A6AC834A52495587
:10426000016B4C169A348D0D49D1955565C3A21535
:104270004A99941443A3006B7B189A34CD31893248
:104280004445AAAC2912252986A54894A4B2006BFE
:10429000D2179A343D2443C70CC9D0314A91744C8B
:1042A00052281E322C026C60189A348D0CC992145C
:1042B000C3524945AA3424C590148392481A6CA16C
:1042C000149A348D584A6A50D29C642C1B944471C1
:1042D00094166CD5179A348D2C43920DCA6A48B245
:1042E00041290625518AA489126CE8139A348D2C31
:1042F00043B20C1E3224AB6153AD940E6D4F189A2D
:10430000348D244B522485D6946BCA96A4488AA433
:1043100029A98A066D6A149A348D0CC9920D89A454
:10432000A5942153CAD239096D88159A348D0CC9C8
:104330005224C59036244BB6FA92624A1C6DD816A8
:104340009A348D24C3922D5355244AE21183922A24
:104350004559006E38159A348DA43E642996244A36
:10436000A98A64D0D23549006E90179A348D744969
:10437000910C4A9614A9225A8A64F0524AD1146EBA
:10438000D1159A348D644AA10C29A54B06651B12E0
:1043900055955202706B169A343D2423553AA51850
:1043A0009691332CC9902CCDA000706F159A34AD26
:1043B00074A5342529D69C45299444490D4D007097
:1043C000B9169A343D24236B50068F5086C423C6F9
:1043D00096B24429017136179A345D95928E285B06
:1043E0008A6448154DA28C29658952027247169A33
:1043F000349D2843A20C1D928C9491B75286441987
:1044000012017259179A34DD118B3224CA90281E7A
:104410003324C5A02443A2B8047269179A348D943A
:1044200086A4E8A0A2296BCA394596520A55910480
:104430007279159A34AD56744CA2149532241E35F7
:10444000244AA14A0173A9159A34FD41A364A474B6
:104450004C52A80A551115C9E30073B0179A343DA0
:10446000744CA1A44AA9A22A4B9512A5889262680D
:10447000017406149A34FD5149916449917450B203
:10448000EA1865F000751F179A349D1A9464F08835
:1044900044191265F08841192943C7007528149AF8
:1044A00034DD2129A543524A4AE99094A4484A039D
:1044B0007535149A34BD0C1E92523A24A5A4940E5C
:1044C0001992E50375C5149A343D2843478D3C6A1B
:1044D000952545D22445D428767B179A34CD1543AB
:1044E0005252A242557444522885362889C7007614
:1044F0007E179A34CD3143324A868F5086C4239436
:10450000215186C423027684149A349D1A948E9283
:1045100092AF88524DF22DC3130076D8159A34BD50
:104520008CB22129798C521A12E52394B28E01772C
:104530000B169A34CD31433278C4900C1EA32C1E36
:104540009114CB1700771F159A34CD3143326C4349
:10455000A20CD990281EA37286067740169A34BD05
:10456000241E332483872C4AC7384A532843160015
:1045700077ED159A348D78D0A01495527884AA528C
:104580009242294B347801159A34CD54CA90286947
:104590004A1275C510554D316412786C139A34CD9A
:1045A00031C9AA2394A2EACA5A55D1680D789F1638
:1045B0009A340D952559AA6894AE1892A22B1AA583
:1045C0002C4B0A78C1159A340D154A9AD2114B56C4
:1045D000A48AAE48A252D231793A139A34DD11E35B
:1045E000FB982119298392A67A8600793E129A3483
:1045F0009DAC79CC920C89F2284E91AC6579BB16B2
:104600009A343D2443C72CC590A69475543215495D
:10461000D4940079CD169A34FD149232241D54524C
:10462000CA9A2E3524CA90280279FB179A34ED7461
:1046300089922845952C1E91284D5228CE920C0126
:104640007A0B149A34BD74444AE9985152A9A6AC25
:104650005086A4027A97159A343D2443472545A2F3
:10466000241F95AA9248293A087B14139A349D284E
:104670004394951269644D23AD5A860C7B52149A6B
:10468000349D2843949592318F1A3EA62992580260
:104690007B7E149A349D2843949592219AA4655860
:1046A000528BE2317B80159A349D28439495525D5C
:1046B000A3345553284DD50C0E7B97169A349D285C
:1046C000439495128F5086C42316C5639245007B90
:1046D000B1149A349D2843949592A5835455534818
:1046E0008DAA027C98149A34AD56A62491CA4A86A3
:1046F000A46A0AA9A4AA007CFB169A34DD114332ED
:104700004A9441294689470DC9A0A4A9007D2017D4
:104710009A343D2443C70CC9E0114B32A43C4A29CA
:10472000922651007D22189A343D2483470CCAD02A
:104730005149912845D2314A913489027EBF159A58
:1047400034AD2485D211CB5425CAAA88945153156F
:104750000D7ECF159A34AD54C9901A12292994446C
:10476000F21865A448157EDC149A34AD54296929E1
:104770002247157550A10C8956017EDD149A34AD7F
:10478000444ADA904855AA683CA618295A057EDFA3
:10479000179A34AD5A3A6229A22251A26629A2A4DC
:1047A0001894242A1A7F16139A34AD5A3A42D1AA81
:1047B000D490784CD9D031657F51159A34CD51A918
:1047C000261525455324512A4A2A451A1C800C17C0
:1047D0009A34CD3143324A068F4A8A2829A2A488C6
:1047E00092221A1C8033129A34CD31CAF2ADBEE542
:1047F000F19A21192901804A169A348D5585D2944F
:1048000055A5A6AC29EB8AA6D42825018054169A72
:10481000344D15A9320F498AE4439222994A4DD961
:10482000D02880FD179A349D2851D254C5C8638A78
:1048300025E99062498A2889008111169A340DA9C8
:104840003A68588A242AAB4A4D914425A9A8008188
:10485000EA119835AD0C1D3374D4D0514334740C27
:104860008282169A34ADF218D5B88E181265489423
:1048700021698664100082F9159A34ADF21895C743
:1048800028A525352843C70CC9100083DC149A34A9
:10489000ADF218D5472C4532A43C4629394903844A
:1048A000DD149A34ADF21825598AAE4C29168F5072
:1048B000CA3A0685CF139A34ADF218B50E4A8A2B40
:1048C0002B525553A400884C169A349D74C4F89406
:1048D0002A19926648942151864491028868169A52
:1048E000343D2443C70CC9E0118332748C52248DAB
:1048F00033398981149A34CD314B31748452A69462
:10490000758C6AA89E0989C6199A34DD2143E21183
:1049100025A5D494B58AA6488AA4488AA5680089A2
:10492000C8159A348D14C95274654A29F1D68A641F
:10493000480A2B0389E3159A341D65A9AE688AA439
:1049400023524507A53CA2490289E6149A341D2545
:104950004ACAA3CABAA2293AA850154D078BA11278
:104960009A349D2C43A28C14274BD67B9495008BB4
:10497000B0169A349D64CA908CAC2C3528C9A024FA
:1049800083532849068BBA189A349D3843522443DE
:10499000722583923449B42483532889058BBE172A
:1049A0009A349D544B910C4AD2244D32522A25E51B
:1049B000344BD2008BC4149A348D74C93228499474
:1049C000525659B23CCA4A008BDD159A349D0C8D63
:1049D000D28C14274B56594A690A25C9008BF41604
:1049E0009A349D5215C9D031C592144B92A58AA70D
:1049F0002C29228C37139A34AD2C4A932CC9902C35
:104A0000CA2065EBBE008D2D189A344D154B92359A
:104A100052AA498A282912A52992624A9A008D34FD
:104A2000159A344D254A4A49B29492529248492BDC
:104A30004549048D77149A34AD7454A2241DA524DD
:104A40008315151D322C1D8F6C149A34AD92AA64F7
:104A5000518A8E2906A572B694E2048F6F179A3494
:104A6000AD245794920A254B8644199A5294144BBC
:104A7000A1008F7D169A34AD244555244AF2312A7F
:104A8000AD94144A565A8A048F91159A34AD749095
:104A9000927444317C8C52281E55A886048FC71608
:104AA0009A348D0CAA8E1854A961299A21519EA47A
:104AB00018960E8FD4159A348D68A921D152CA90B8
:104AC00014D1A33451312C1D8FD8139A348D74C94D
:104AD000A23C4B6A48456B4A312C1D8FD9169A343B
:104AE0008D2C43920DA946299495522889540C4B3C
:104AF000078FDB159A348D2C85D2114BA12A868E17
:104B0000492969C5B0749001169A348D2889921488
:104B10004A972C83C728859248C5B0749002139A8F
:104B2000348D0C4E128D14274B56594A2A491D902C
:104B300053169A348D288992144A972CC387244A95
:104B4000D21125A90390A3179A344D4549A92B29C1
:104B500045B2945545AA14254DAA180090AE159A51
:104B600034AD48AAAE684AA9B2AE68CA9A52921544
:104B70000290E8159A34AD7854912AA57544312CE9
:104B80005DD12849560890FD169A34AD784C4955A8
:104B90002845D21145AAE84A69562100914D159A37
:104BA000344D45C9E05D4596144B525C4594145D07
:104BB000049177169A344D95140F4A9A224B062584
:104BC000E990224A8A2E0291CC159A34DD114ACA04
:104BD000239494470CCAE0118332740C94AE159A56
:104BE000349D6451D20C499614490715292569D280
:104BF0003294FE189A349D148A535483D224C59259
:104C00007445A2244D54528A089501169A349D2A5F
:104C1000554533241E93F28852AAD42485922895B0
:104C20002E169A349D58A9A2F198B2A4E888D2927F
:104C300035A5A5880095ED169A348D74C9A00C4A47
:104C400054354BE44449111549E4249632159A34FD
:104C50000DA93AA4481E6529BA92554CC9343401AD
:104C60009644179A340D2551914445472452914456
:104C70006551222992D2009664169A340D4549490D
:104C80004A06A7230A55C72C4AAA299A0296F6165D
:104C90009A34DD1183327454595315CAE2414A32B1
:104CA0002849009762169A34CD3143327454A134A6
:104CB0005553284DD5144A070197F3149A343D24CF
:104CC00083872CC9A0241EA32CDFEA0B009875153E
:104CD0009A34CD314332788432244A4A4929A92171
:104CE000253D9891159A34AD7449B1141DA42AB587
:104CF0004A4D99536A12059F20179A340D45C9A051
:104D0000C49241E9904449A2A44814AD290000008E
:104D10001815A115C819FF001815A015C019FF0016
:104D20001815AE15D5168015A8163F15D316001503
:104D300040158D16141520160015A115C815DA1684
:104D400012158116CF15D916F115DB1640152E1543
:104D5000A415A619FF0000001815AF19FF000000E8
:104D60001815AE19FF0000000001140A6464323205
:104D700000127A000004289610080000800040000D
:104D8000A04D0008000000201800000028010008C5
:104D9000B84D000818000020B80B000044010008BE
:104DA00000000000000000000100000010000000F2
:084DB0000000000000127A006F
:04000005080000ED02
:00000001FF
