:020000040800F2
:10000000D00B002035020008F12E0008292C000832
:10001000EF2E0008932000088D2F0008000000003C
:10002000000000000000000000000000F52E0008A5
:100030009520000800000000F32E0008F72E0008AD
:100040004F0200084F0200084F0200084F0200084C
:100050004F0200084F0200084F0200084F0200083C
:100060004F0200084F0200084F0200084F0200082C
:100070004F0200084F0200084F0200084F0200081C
:100080004F0200084F0200084F0200080000000065
:100090000000000000000000000000004F02000807
:1000A0004F0200084F0200084F0200084F020008EC
:1000B0004F0200084F0200084F0200084F020008DC
:1000C0004F0200084F0200084F0200084F020008CC
:1000D0004F0200084F0200084F0200080000000015
:1000E0004F0200084F0200084F0200080000000005
:1000F0000000000000000000000000004F020008A7
:10010000000000004F0200084F0200084F020008E4
:1001100000000000000000000000000000000000DF
:100120004F0200084F0200084F0200084F0200086B
:100130004F02000800000000000000000000000066
:100140000000000000000000000000004F02000856
:100150004F0200084F0200084F0200084F0200083B
:100160004F0200084F0200080000000000000000DD
:10017000000000000000000000000000000000007F
:10018000000000004F020008000000000000000016
:100190004F02000800F002F800F03CF80AA090E8D6
:1001A000000C82448344AAF10107DA4501D100F032
:1001B00031F8AFF2090EBAE80F0013F0010F18BFC3
:1001C000FB1A43F001031847104E0000304E0000A8
:1001D000103A24BF78C878C1FAD8520724BF30C873
:1001E00030C144BF04680C60704700000023002445
:1001F00000250026103A28BF78C1FBD8520728BF37
:1002000030C148BF0B6070471FB502F081FF1FBDB2
:1002100010B510BD00F0FCF81146FFF7F5FF02F035
:10022000C7FE00F01AF903B4FFF7F2FF03BC00F0B9
:1002300021F900000948804709480047FEE7FEE72A
:10024000FEE7FEE7FEE7FEE7FEE7FEE7FEE7FEE786
:1002500004480549054A064B704700007D2F0008F9
:1002600095010008D0050020D00B0020D007002009
:10027000D007002053EA020C00F069802DE9F04B12
:100280004FF00006002B1FBFB3FA83F503FA05F405
:1002900024FA05F65E4012BF1643B2FA82F502FA5E
:1002A00005F4C5F120051EBF22FA05FC44EA0C0442
:1002B000203556EA044C4FEA144418BF641C4FF032
:1002C00000084FF00009904271EB030C39D300296C
:1002D00019BFB1FA81F701FA07F6B0FA80F700FA10
:1002E00007F6C7F120071EBF20FA07FC46EA0C06F6
:1002F0002037B6FBF4FCA7EB0507103F07F01F0BF8
:10030000CBF120060CFA0BFB2CFA06F644BFB346E1
:100310000026202FA4BF5E464FF0000B5BEA060CC0
:1003200008BF4FF0010B19EB0B09ABFB027C48EB4C
:100330000608C01B06FB02CC0BFB03CC71EB0C01C7
:10034000C1E70B46024641464846BDE8F08B13B56F
:100350004FF000004FF00001AFF30080BDE81C40FB
:10036000704701F0FF03114601B543EA032242EA58
:10037000024200F02DF801BD4FF0000200B5134617
:1003800094469646203922BFA0E80C50A0E80C50B5
:10039000B1F12001BFF4F7AF090728BFA0E80C5066
:1003A00048BF0CC05DF804EB890028BF40F8042B5F
:1003B00008BF704748BF20F8022B11F0804F18BFCC
:1003C00000F8012B70477047704770474FF00002EC
:1003D0000429C0F0128010F0030C3FF4CFAFCCF131
:1003E000040CBCF1020F18BF00F8012BA8BF20F8C5
:1003F000022BA1EB0C01FFF7C1BF5FEAC17C24BF58
:1004000000F8012B00F8012B48BF00F8012B7047C2
:10041000754600F02BF8AE4605006946534620F0BD
:100420000700854618B020B5FFF712FFBDE8204051
:100430004FF000064FF000074FF000084FF0000BA0
:1004400021F00701AC46ACE8C009ACE8C009ACE853
:10045000C009ACE8C0098D46704710B50446AFF33B
:1004600000802046BDE81040FFF7DDBE0048704721
:100470006C01002001491820ABBEFEE726000200F7
:10048000704780B584B000AF78607B681B681B7CC8
:10049000FB607B6893F838301A46FB6802FB03F375
:1004A000FB60FB68DB00FB607B685B6BFA6800212C
:1004B0001846FFF756FF00BF1037BD4680BD00004D
:1004C00080B584B000AFF860084611461A4603466E
:1004D0007B810B463B811346FB80FB6893F87030B1
:1004E000032B33D801A252F823F000BFFD0400080B
:1004F000110500082505000839050008FB68DB6DBB
:10050000F868984703461A463B8913443B811DE02F
:10051000FB68DB6DF868984703461A467B899B1A8F
:100520007B8113E0FB68DB6DF868984703461A4649
:100530003B899B1A3B8109E0FB68DB6DF8689847B3
:1005400003461A467B8913447B8100BFFB883A89A6
:100550007989F86800F0E8FD034618461037BD4673
:1005600080BD00BF90B587B002AFF8600846114665
:100570001A4603467B810B463B811346FB80FB6892
:1005800093F88C30002B75D0FB88002B72D0FB8841
:10059000012B1AD997F82030022B09D17A89FB88D0
:1005A000D31A9BB27B817B8901339BB27B810CE0A8
:1005B00097F82030032B08D13A89FB88D31A9BB2D5
:1005C0003B813B8901339BB23B8197F8203003F09C
:1005D000010387F8203097F82030002B1AD1FB68F0
:1005E000B3F84C203B899A423BD8FB68B3F84E20C5
:1005F0003B899A4237D9FB68B3F84820FB68B3F8C7
:100600004A30B91D07F10A0000F099FA0346002BA1
:100610001AD12FE0FB68B3F848207B899A4224D88E
:10062000FB68B3F84A207B899A4220D9FB68B3F86B
:100630004C20FB68B3F84E30B91D07F1080000F0FC
:100640007EFA0346002B14D0FB681B6B9C687989EB
:100650003A89F88897F8203000930346F868A04755
:1006600008E000BF06E000BF04E000BF02E000BFFA
:1006700000E000BF1437BD4690BD000080B584B0D7
:1006800000AFF8607B600B467B8113463B81FB68C3
:10069000064A5A603A8979897B68F86800F0D8FA86
:1006A000034618461037BD4680BD00BF83190008B9
:1006B00080B584B000AFF8607B600B467B81134649
:1006C0003B81FB68064A5A603A8979897B68F868F9
:1006D00000F0BEFA034618461037BD4680BD00BF85
:1006E0008B1F000880B584B000AFF8600846114643
:1006F0001A4603467B810B463B811346FB80FB6811
:10070000B3F84C00FB68B3F84E103B8B3A8900F00D
:100710001FFE0346002B01D100230AE0FB68B3F85B
:100720004800FB68B3F84A10FB887A8900F010FE95
:10073000034618461037BD4680BD80B582B000AF75
:100740007860786800F091FF786801F0A0F800BF49
:100750000837BD4680BD80B582B000AF7860396093
:100760007B689B6D3A689A420BD07B683A689A65C1
:100770007B6874333968184600F0CEFE786800F064
:100780009FF800BF0837BD4680BD000080B483B02D
:1007900000AF78607B68044ADA6500BF0C37BD465D
:1007A0005DF8047B704700BF090D000880B582B07A
:1007B00000AF78607B680022A3F850207B6800229D
:1007C000A3F854207B684FF6FF72A3F852207B6891
:1007D0004FF6FF72A3F856207B681B6B5B68786846
:1007E000984700BF0837BD4680BD80B584B000AFD4
:1007F000F860B9603B601346FB71FB6800229A65A4
:10080000FB683A68DA62FB68BA685A63FB68FA798F
:1008100083F83820FB68002283F83920FB68002227
:1008200083F86D20FB68002283F89120FB6800228A
:1008300083F88D20FB68012283F89220FB68012257
:1008400083F89320FB68BA691A63FB681B6B1B680B
:10085000F8689847F868FFF7A9FFF868FFF796FF70
:10086000FB68002283F8702000BF1037BD4680BDB2
:1008700080B588B002AFF860B9607A603B603B68D1
:1008800000937B680B4A0C49F86801F020F807F1E7
:100890001303184600F030FE7861FA7CBB680093C1
:1008A000064B7969F868FFF7A0FF00BF1837BD460F
:1008B00080BD00BF8D1B00083D1D0008B713000858
:1008C00080B483B000AF78607B689B6D002B5DD0F7
:1008D0007B6893F981207B6883F88E207B6893F98D
:1008E00082207B6883F88F207B6893F88D30002B03
:1008F0004DD07B6893F88D30012B1CD17B6893F928
:100900008E207B6893F983309A4205DA7B6893F9ED
:1009100083207B6883F88E207B6893F98F207B6827
:1009200093F984309A4232DD7B6893F984207B68A6
:1009300083F88F202BE07B6893F98E301A467B6812
:1009400093F97E3019467B6893F980300B449A42C4
:100950000DDA7B6893F97E30DAB27B6893F98030E8
:10096000DBB21344DBB25AB27B6883F88E207B681B
:1009700093F98F207B6893F980309A4207DD7B687A
:1009800093F980207B6883F88F2000E000BF0C374C
:10099000BD465DF8047B704790B482B000AF04465A
:1009A000084611461A462346FB8003467B710B46D8
:1009B0003B711346FB70FB78022B14D0022B19DC21
:1009C000002B02D0012B07D014E097F905309AB222
:1009D000FB881344FB8014E097F904309BB2FA883B
:1009E000D31AFB800DE097F905309BB2FA88D31A31
:1009F000FB8006E097F904309AB2FB881344FB8031
:100A000000BFFB8818460837BD4690BC704790B4BD
:100A100082B000AF0446084611461A462346FB80C2
:100A200003467B710B463B711346FB70FB78022B30
:100A300014D0022B19DC002B02D0012B07D014E0BC
:100A400097F904309AB2FB881344FB8014E097F9BD
:100A500005309AB2FB881344FB800DE097F904300F
:100A60009BB2FA88D31AFB8006E097F905309BB257
:100A7000FA88D31AFB8000BFFB8818460837BD46AA
:100A800090BC704780B584B002AF78607B68B3F8E3
:100A900050107B68B3F854207B68B3F852007B6831
:100AA000B3F85630009303467868FFF71BFE034601
:100AB000002B04D17B68002283F88C203BE07B680C
:100AC000012283F88C207B68B3F848207B68B3F858
:100AD00050309A4205D27B68B3F850207B68A3F867
:100AE00048207B68B3F84A207B68B3F852309A42BA
:100AF00005D97B68B3F852207B68A3F84A207B684D
:100B0000B3F84C207B68B3F854309A4205D27B6826
:100B1000B3F854207B68A3F84C207B68B3F84E20D0
:100B20007B68B3F856309A4205D97B68B3F85620F3
:100B30007B68A3F84E2000BF0837BD4680BD80B457
:100B400087B000AFF860B96011461A460B46FB80CB
:100B50001346BB80FB681B88FB82FB8ABB82BB6899
:100B60001A88BB8A1344BB82FA8ABB8A9A420BD981
:100B7000FA8ABB889A4205D2BB88BB82BB8A013BFA
:100B8000BB8201E0FB88FB82FA8ABB889A4201D3D0
:100B900000231CE0BA8AFB889A4201D8002316E0A1
:100BA000FA8AFB889A4201D2FB88FB82BA8ABB8808
:100BB0009A4201D9BB88BB82FB68FA8A1A80BA8A3A
:100BC000FB8AD31ABB82BB68BA8A1A8001231846F3
:100BD0001C37BD465DF8047B704790B587B002AF07
:100BE000F860084611461A4603467B810B463B8156
:100BF0001346FB80FB68DB8F3A89D31A3B81FB6885
:100C0000DC6AF8883A89798997F82030009303469E
:100C1000F868A04700BF1437BD4690BD80B586B0C8
:100C200002AFF860084611461A4603467B810B4620
:100C30003B811346FB80F8883A8979893B7E009393
:100C40000346F868FFF7C9FF00BF1037BD4680BDF7
:100C500080B586B000AFF8607B600B467B811346A1
:100C60003B81F86801F083F90023FB82FB685B6835
:100C70007A6812781146F86898470346BB82BB8AA7
:100C80004FF6FF72934238D07B6801337B60BB8A9A
:100C90004FF6FE729342E9D0BB8A3A897989F868A7
:100CA000FFF70EFC03467B82FB6893F87030032B42
:100CB0001ED801A252F823F0C90C0008D30C00087A
:100CC000DD0C0008E70C00087A897B8A13447B81DD
:100CD0000EE03A897B8A13443B8109E07A897B8A5A
:100CE000D31A7B8104E03A897B8AD31A3B8100BF07
:100CF000FA8A7B8A1344FB82B8E700BFFB8A184656
:100D00001837BD4680BD00BF80B483B000AF7860A7
:100D1000002318460C37BD465DF8047B704780B54C
:100D200084B000AF78600B46FB70FB78194678689A
:100D300000F018F80346FB730123BB73FB78013BFB
:100D4000FB7097F90E20FB7802FA03F3BB73FA7B72
:100D5000BB7BD31ADBB2FB7397F90F301846103701
:100D6000BD4680BD80B485B000AF78600B46FB7097
:100D70007B681B7B7B737B681B681B78FB73FA7B30
:100D80007B7B42FA03F3FB737B7BBB73BA7BFB7801
:100D90001344BB73BB7B072B1AD908233B733A7BE5
:100DA0007B7BD31A3B737B681B685A1C7B681A6079
:100DB0007B681B681B781A463B7B02FA03F35AB226
:100DC00097F90F3013435BB2FB73BB7B083BBB73DC
:100DD000FB784FF0FF3202FA03F3DBB2DB43DAB207
:100DE000FB7B1340FB737B68BA7B1A73FB7B184653
:100DF0001437BD465DF8047B7047000080B58AB0AB
:100E000002AF786039607B6860337B6139687868ED
:100E100000F067FA7B6893F86B30FB747B6893F89B
:100E20007A3019467869FFF77AFF0346BB747B680E
:100E300093F87B3019467869FFF771FF03467B749E
:100E40007B6893F87C3019467869FFF768FF0346A2
:100E50003B747B6993F90A30002B40F3D7807B69A0
:100E60009888FA7C7B7C1344DBB25B42DBB25AB2DB
:100E70007B691B7C97F91210FFF78EFD03461A461B
:100E80007B699A807B69D888FA7C7B7C1344DBB2CF
:100E90005B42DBB25AB27B691B7C97F91210FFF7F9
:100EA000B6FD03461A467B69DA807B699B88FB8323
:100EB0007B69DB887B83FB8BBB837B8B3B837B6981
:100EC0001B7C032B5AD801A252F823F0DD0E000838
:100ED000F90E0008210F0008550F00087B6993F9EF
:100EE0000A309AB2BB8B1344BB8397F913309AB282
:100EF0003B8B13443B8341E097F913309BB2FA8B51
:100F0000D31AFB83FB8B0133FB83BB8B0133BB8386
:100F10007B6993F90A309AB23B8B13443B832DE0F3
:100F20007B6993F90A309BB2FA8BD31AFB83FB8B54
:100F30000133FB83BB8B0133BB8397F913309BB227
:100F40007A8BD31A7B837B8B01337B833B8B01337F
:100F50003B8313E097F913309AB2BB8B1344BB83E6
:100F60007B6993F90A309BB27A8BD31A7B837B8B94
:100F700001337B833B8B01333B8300BFB88B7A8B80
:100F8000F98B3B8B009303467868FFF7ABFB034676
:100F9000002B02D197F910303AE07B6900221A72D7
:100FA0007B6900225A727B6893F87630194678691B
:100FB000FFF7D8FE0346FB737B6893F8773019463A
:100FC0007869FFF7CFFE0346BB73FB7B002219460F
:100FD000786800F021F8BB7B01221946786800F0A0
:100FE0001BF801217869FFF7BDFE0346002BECD109
:100FF0007B6993F9093097F913209A4200DDD2E713
:1010000000BF7B699A7B7B6883F8922097F9103048
:1010100018462037BD4680BD80B588B002AF7860E5
:101020000B46FB701346BB707B6860333B61FB78FB
:10103000FB753B6993F908307B753B6993F909307F
:101040003B753B6993F90A30FB73FA7B7B7DD31ABE
:10105000FB73FB7BBB75FA7DFB7B9A4201D2FB7D68
:10106000BB753B699B88BB813B69DB887B8197F9BA
:10107000151097F914203B691B7CB889FFF78CFC8D
:101080000346BB8197F9151097F914203B691B7C27
:101090007889FFF7BCFC03467B81BB78002B10D01E
:1010A0003B699A7B7B6883F89220BB7D98B23B6951
:1010B0001B7C7A89B989009303467868FFF752FA56
:1010C00013E03B695B7B002B0FD13B69DA7B7B68CC
:1010D00083F89220BB7D98B23B691B7C7A89B989E1
:1010E000009303467868FFF73DFAFA7DFB7B9A424E
:1010F00009D3FA7DFB7BD31AFB7500237B753B7DFF
:1011000001333B759DE700BF7A7DFB7D13447B7502
:1011100097F915203B691A7297F914203B695A72A6
:1011200000BF1837BD4680BD80B586B000AFF860FF
:10113000084611461A4603467B810B463B811346FF
:10114000FB800023FB82FB687A89A3F86420FB689C
:101150003A89A3F86620FB881946F86800F021F860
:1011600038613B69002B05D03969F868FFF746FE06
:101170000346FB82FB8A18461837BD4680BD80B403
:1011800083B000AF78600B46FB70FB787A6813443D
:101190007B607B681B7818460C37BD465DF8047B86
:1011A000704780B586B000AF78600B467B807B6867
:1011B0009B6D7B617B6917337B617B88FF2B2AD812
:1011C0007B88602B07D97B68B3F888301A467B6927
:1011D00013447B6109E07B88402B06D97B68B3F818
:1011E00086301A467B6913447B617B6901331B7827
:1011F000002B4ED07B691B781A467B88934202D124
:101200007B69023349E07B6901331B781A467B69AD
:1012100013447B61E9E77B68B3F88A301A467B693F
:1012200013447B617B693B610021386900F039F828
:1012300003461A467B6913447B610221386900F03A
:1012400030F80346FB813B6904333B61FA897B88B4
:101250009A42E9D37B691B78FB81FB891B02FB81E6
:101260007B6901331B781A46FB891343FB81FB8999
:10127000002B10D0FA897B889A4202D17B69033314
:101280000BE07B6902331B781A467B6913447B6150
:10129000E0E700BF00E000BF002318461837BD4656
:1012A00080BD80B485B000AF78600B46FB70FB78E2
:1012B0007A6813447B607B681B78FB817B68013311
:1012C0007B60FB891B02FB817B681B781A46FB89CC
:1012D0001344FB81FB8918461437BD465DF8047B37
:1012E000704780B584B000AF786039607B68603348
:1012F000FB60FB683A681A60FB6800221A737B681F
:1013000093F878301946F868FFF72CFD03465AB277
:10131000FB689A727B6893F879301946F868FFF792
:1013200021FD03465AB2FB68DA727B6893F892207B
:10133000FB689A73FB689B7B002B0CBF0123002387
:10134000DBB21A46FB68DA7300BF1037BD4680BDBA
:1013500090B482B000AF0446084611461A462346B0
:10136000FB800346BB800B467B8013463B807A881C
:10137000BB889A420DD23A88FB889A4201D9012350
:1013800014E07A883B889A4201D901230EE00023B9
:101390000CE03A88FB889A4207D97A883B889A42BF
:1013A00001D9012302E0002300E00023184608379A
:1013B000BD4690BC704780B489B000AFF860084665
:1013C00011461A4603467B810B463B811346FB8040
:1013D0003B89FB76FB7E03F00703FB7601233B761C
:1013E0003A7EFB7E02FA03F33B760023BB760023B2
:1013F0007B76FB6893F89230012B01D83B7EBB765D
:10140000FB6893F89230012B01D03B7E7B763B89C1
:10141000FB82FB8A23F00703FB82FB681B681B7CB3
:101420001A46FB8A13FB02F3FB82FB685B6BFB61D2
:10143000FB8AFA691344FB617B89FA691344FB61F7
:1014400097F82830002B17D1FB691A78BB7E13431D
:10145000DAB2FB691A70FB691A787B7E5340DAB204
:10146000FB691A70FB690133FB61FB88013BFB8060
:10147000FB88002BE8D138E0FB691A78BB7E134368
:10148000DAB2FB691A70FB691A787B7E5340DAB2D4
:10149000FB691A70FB7E0133FB76FB7E03F00703CA
:1014A000FB76FB88013BFB80FB7E002B14D1FB68A5
:1014B0005B8F1A46FB691344FB61FB6893F892301B
:1014C000012B01D80123BB76FB6893F89230012BE6
:1014D00008D001237B7605E0BB7E5B00BB767B7E7C
:1014E0005B007B76FB88002BC6D100BF2437BD464E
:1014F0005DF8047B7047000080B483B000AF786073
:101500007B6808221A70034B18460C37BD465DF8FD
:10151000047B7047CC01002080B582B000AF7860BA
:10152000396000213868FFF72AFE03461A467B68B7
:101530001A7001213868FFF722FE03461A467B68BD
:101540005A7002213868FFF71AFE03461A467B6874
:101550009A7003213868FFF712FE03461A467B682B
:10156000DA7004213868FFF70AFE03461A467B68E2
:101570001A7105213868FFF702FE03461A467B6898
:101580005A7106213868FFF7FAFD03461A467B6850
:101590009A7107213868FFF7F2FD03461A467B6807
:1015A000DA7108213868FFF7EAFD03461A467B68BE
:1015B0001A7209213868FFF7E2FD03465AB27B68C8
:1015C0005A720A213868FFF7DAFD03465AB27B687F
:1015D0009A720B213868FFF7D2FD03465AB27B6836
:1015E000DA720C213868FFF7CAFD03465AB27B68ED
:1015F0001A730D213868FFF7C2FD03465AB27B68A3
:101600005A730E213868FFF7BAFD03465AB27B6859
:101610009A730F213868FFF7B2FD03465AB27B6810
:10162000DA7310213868FFF7AAFD03465AB27B68C7
:101630001A7411213868FFF734FE03461A467B6896
:101640005A8213213868FFF72CFE03461A467B683E
:101650009A8215213868FFF724FE03461A467B68F4
:10166000DA8200BF0837BD4680BD80B584B000AFC8
:1016700078600023FB737B6893F838307B737B685A
:1016800093F83930BB737B681B685B7C3B73BA7B18
:10169000FB7B1946786800F012F8FB7B0133FB7383
:1016A000BB7B0133BB73FA7B7B7B9A4203D2BA7B51
:1016B0003B7B9A42EBD300BF1037BD4680BD80B55F
:1016C00086B002AF78600B46FB701346BB707B6838
:1016D0001B681B7CFB73FB78BB817B685B6BBB600F
:1016E000FB7B9BB2BA8912FB03F3BB81BB89DB0096
:1016F000BB81BB89BA681344BB60F97BBA78BB680D
:1017000000930B460021786800F090F800BF103776
:10171000BD4680BD80B485B000AF78607B681B6833
:10172000BB607B6893F83830FB81FB89DB00FB8171
:101730007B68FA899A87BB681B7CFB81FB89DB008D
:10174000FB817B68FA895A877B6893F83930FB8183
:10175000FB89DB00FB817B68FA89DA877B6893F879
:101760003830FB81FB897A6892F839201344BA68D3
:10177000527C934207DDBB685B7C1A467B6893F81A
:101780003930D31AFB81FB89DB00FB817B68DA8F60
:101790007B68A3F840207B68B3F840207B68A3F8FF
:1017A00042207B68B3F84220FB8913449AB27B68DD
:1017B000A3F84220BB689A8A7B68A3F84420BB68E0
:1017C000DA8A7B68A3F8462000BF1437BD465DF86F
:1017D000047B704780B582B000AF78607868FFF70F
:1017E00099FF00BF0837BD4680BD80B582B000AF0D
:1017F00078607B680022A3F848207B68B3F8442017
:101800007B68A3F84A207B68B3F840207B68A3F884
:101810004C207B68B3F842207B68A3F84E207868A0
:10182000FFF730F900BF0837BD4680BD90B585B0E1
:1018300000AF7860084611461A460346FB700B4617
:10184000BB7013467B70FB787B73BB78BB737B7874
:101850003B733B6ABB607B689C6807F1080301220D
:101860000F217868A047034618461437BD4690BD3F
:1018700090B583B000AF78607B689C68002300223D
:101880000A217868A04700BF0C37BD4690BD90B5CF
:1018900083B000AF78607B689C6800230022102131
:1018A0007868A04700BF0C37BD4690BD90B583B0A7
:1018B00000AF78600B46FB707B689C68FA78002369
:1018C0000B217868A04700BF0C37BD4690BD80B59E
:1018D00084B000AFF860B9607A603B60F86800F0EF
:1018E00013F8FB68BA689A60FB687A68DA60FB688C
:1018F0003A681A61FB68BA695A61F86800F032F810
:1019000000BF1037BD4680BD80B483B000AF7860A3
:101910007B6800221A607B68114A9A607B68104AD3
:10192000DA607B680E4A1A617B680D4A5A617B68EF
:10193000002283F823207B68002283F826207B681E
:1019400000229A617B68FF2283F824207B68FF22B3
:1019500083F8282000BF0C37BD465DF8047B704734
:10196000F11E000890B583B000AF78607B689C687A
:101970000023002209217868A04700BF0C37BD462C
:1019800090BD80B483B000AF78600B46FB70FB78ED
:10199000002B02D0FB780A2B02D14FF6FF7301E037
:1019A000FB789BB218460C37BD465DF8047B704748
:1019B00090B583B000AF78607B681C69002300227B
:1019C00019217868A047034618460C37BD4690BDDC
:1019D00080B582B000AF78600B46FB70FB1C1A46E6
:1019E0000121786800F005F8034618460837BD461F
:1019F00080BD90B585B000AFF8600B467A60FB7291
:101A0000FB681C69FA7A7B681721F868A0470346CF
:101A100018461437BD4690BD90B583B000AF7860CE
:101A20007B681C690023002218217868A0470346C0
:101A300018460C37BD4690BD90B583B000AF7860B6
:101A40007B68DC680023002219217868A0470346E0
:101A500018460C37BD4690BD90B583B000AF786096
:101A60000B46FB707B68DC68FA78002316217868E7
:101A7000A047034618460C37BD4690BD90B583B0CD
:101A800000AF78600B46FB707B68DC68FA78002357
:101A900015217868A047034618460C37BD4690BD0F
:101AA00090B585B000AFF8600B467A60FB72FB68BA
:101AB000DC68FA7A7B681721F868A0470346184665
:101AC0001437BD4690BD90B585B000AF78603960E1
:101AD0003B681B78FB733B6801333B60FB7BFE2B51
:101AE00031D0FE2B3DDC192B3BDC182B23DA162BD7
:101AF00002DC152B03DA34E0172B0ED031E03B6803
:101B00001B78BB737B68DC68BA7BF97B0023786841
:101B1000A0473B6801333B6022E03B681B78BB7306
:101B200007F10E031A4601217868FFF7B9FF3B68F9
:101B300001333B6014E07B68DC68F97B0023002202
:101B40007868A0470CE03B681B78BB73BB7B1A46E8
:101B50002921786800F0DCF93B6801333B6000BF65
:101B6000B6E700BF1437BD4690BD90B583B000AF57
:101B700078607B68DC680023002218217868A04721
:101B8000034618460C37BD4690BD000090B587B09F
:101B900000AFF8607B600B46FB721346BB72FB7AAA
:101BA000143B052B6ED801A252F823F0431C000809
:101BB000C51B0008F31B0008FF1B0008671C00087A
:101BC0006F1C0008334B1B78002B02D0F868FFF71E
:101BD000EFFEF868FFF720FF0021F868FFF7F8FE36
:101BE000BB7A1946F868FFF7F3FE2A4B01221A70F8
:101BF0004AE0BB7A1946F868FFF7EAFE44E0254B55
:101C00001B78002B02D0F868FFF7D2FE7B687B615F
:101C10000AE07A691821F86800F08DF9BB7A183B60
:101C2000BB727B6918337B61BB7A182BF1D8BB7A06
:101C30007A691946F86800F07EF9164B00221A708E
:101C400022E0FB6893F82430FF2B03D1FB68782255
:101C500083F82420FB681C69BA7AF97A7B68F868F3
:101C6000A047034611E00B4B00221A700CE0094B11
:101C70001B78002B02D0F868FFF79AFE054B002274
:101C80001A7001E0002300E0012318461C37BD460E
:101C900090BD00BFCC05002090B583B000AF786048
:101CA0007B685C690023002228217868A0477B6854
:101CB000DC680023002214217868A04701224B2110
:101CC000786800F025F97B681B681B791A46292182
:101CD000786800F01DF900224B21786800F018F9AF
:101CE0007B681B681B791A462921786800F010F977
:101CF00001224B21786800F00BF97B681B685B7947
:101D00001A462921786800F003F900BF0C37BD4658
:101D100090BD80B483B000AF786039607B683A686A
:101D20001A607B681B689A7C7B6883F8222000BF5E
:101D30000C37BD465DF8047B7047000080B584B069
:101D400000AFF8607B600B46FB721346BB72BA7A39
:101D5000F97A7B68F86800F023F80346002B01D07D
:101D6000012314E0FB7A092B09D00A2B0CD1F86867
:101D7000FFF792FF0849F868FFF7A5FE06E007495C
:101D8000F868FFF7C6FF01E0002300E001231846D2
:101D90001037BD4680BD00BF784F0008C04F000817
:101DA00080B586B000AFF8607B600B46FB721346CF
:101DB000BB72FB7A0B3B042B00F28A8001A252F823
:101DC00023F000BFD91D0008D11E0008F31D000834
:101DD000251E0008451E0008BB7A002B04D140498F
:101DE000F868FFF770FE75E03E49F868FFF76BFE94
:101DF00070E0BB7A002B0AD13B49F868FFF763FE1D
:101E0000FB681B689A7CFB6883F8222062E03749F4
:101E1000F868FFF758FEFB681B68DA7CFB6883F8FC
:101E2000222057E0F868FFF7A0FE8121F868FFF74D
:101E300025FEBB7A1946F868FFF70EFEF868FFF733
:101E4000FBFD47E0F868FFF790FE7B685B79FB7568
:101E5000FB7DDB00FB75FB6893F82220FB7D1344C0
:101E6000FB754021F868FFF709FEFB7D1B09DBB21B
:101E700043F01003DBB21946F868FFF7FFFDFB7D66
:101E800003F00F03DBB21946F868FFF7E5FD7B6846
:101E90009B7963F04F03DBB21946F868FFF7DCFD6E
:101EA0007B681B79BB757B681B683B61BB7DDB0076
:101EB000DBB23A691946F868FFF7F2FDBB7A013BDD
:101EC000BB72BB7A002BEBD1F868FFF7B5FD01E0E0
:101ED000002300E0012318461837BD4680BD00BF2F
:101EE000B04F0008B84F0008684F0008704F000856
:101EF00080B485B000AFF8607B600B46FB72134680
:101F0000BB72002318461437BD465DF8047B70474A
:101F100090B583B000AF78600B46FB701346BB7082
:101F20007B685C69BA78F97800237868A04700BFBD
:101F30000C37BD4690BD90B585B000AFF8600B463C
:101F40007A60FB72F868FFF767FD4021F868FFF7D9
:101F50003FFDFB681C69FA7A7B681721F868A04787
:101F6000F868FFF725FD00BF1437BD4690BD80B46B
:101F700083B000AF78607B68002283F8262000BF22
:101F80000C37BD465DF8047B704780B483B000AF6A
:101F900078600B46FB70FB78002B02D0FB780A2B95
:101FA00002D14FF6FF736EE07B6893F82630002B6A
:101FB00045D1FB78FB2B08D97B68052283F82620C6
:101FC000FB7803F00103FB7032E0FB78F72B08D9B4
:101FD0007B68042283F82620FB7803F00303FB7060
:101FE00026E0FB78EF2B08D97B68032283F82620B4
:101FF000FB7803F00703FB701AE0FB78DF2B08D9AE
:102000007B68022283F82620FB7803F00F03FB7025
:102010000EE0FB78BF2B08D97B68012283F82620CD
:10202000FB7803F01F03FB7002E0FB789BB22AE011
:10203000FB789AB27B681A844FF6FE7323E07B68C4
:1020400093F82630013BDAB27B6883F826207B6860
:102050001B8C9B019AB27B681A84FB7803F03F03C8
:10206000FB707B681A8CFB789BB213439AB27B6837
:102070001A847B6893F82630002B02D04FF6FE734B
:1020800001E07B681B8C18460C37BD465DF8047B6D
:102090007047FEE77047000070B5044600F0FEF898
:1020A0000546601C02D004480078044400F0F6F8AD
:1020B000401BA042FAD370BD080000202DE9F84F64
:1020C000DFF8B8A10022012403254FF00F090AF11F
:1020D000040BAAF1040E00BF0B6804FA02F63340A9
:1020E000B34273D10F7907F00307012F01D0022FFC
:1020F00016D187684FEA420805FA08FC27EA0C0760
:10210000D1F80CC00CFA08FC4CEA070CC0F808C067
:102110004768B7430E79C6F3001696403E434660C3
:102120000E79F643B6070DD0C768560005FA06FCCF
:1021300027EA0C07D1F808C00CFA06FC4CEA070C99
:10214000C0F80CC00E7906F00306022E10D1D60896
:1021500000EB8608D8F8206057074FEAD76C09FAD9
:102160000CF7BE430F6907FA0CF73743C8F8207025
:1021700006684FEA420C05FA0CF7BE430F7907F0E8
:10218000030707FA0CF7374307604E6816F4403F21
:102190006DD03B4E376847F480473760366822F091
:1021A000030706F480460096364E07EB060CDCF873
:1021B000086897073F0F09FA07F826EA0806DFF8CC
:1021C000C880404503D14FF000081EE04FE0DFF823
:1021D000BC80404502D14FF0010816E0DFF8B08026
:1021E000404502D14FF002080FE0DFF8A8804045DB
:1021F00002D14FF0030808E0DFF89C80404502D18F
:102200004FF0040801E04FF0070808FA07F848EA21
:102210000608CCF80888DAF800605746D1F804C000
:102220009E435FEACC2C00D51E433E60DBF8006085
:102230005F46D1F804C09E435FEA8C2C00D51E4354
:102240003E60DEF800607746D1F804C09E435FEA46
:102250008C3C00D51E433E60084F083F3E68D1F8D5
:1022600004C09E435FEACC3C00D51E433E60521C36
:10227000102AFFF431AFBDE8F88F0000083C0140A0
:102280004438024000300140000002400004024097
:1022900000080240000C0240001002400148806823
:1022A000704700000800002070B5040025D094F8A5
:1022B0003D00002520B984F83C50204600F04EF93E
:1022C000242084F83D002068016821F001010160AC
:1022D0002068016841F4004101602068016821F430
:1022E0000041016000F094FA4D4A6168914201D8C2
:1022F0004C4900E04C49884201D2012070BD4B4955
:102300002368B0FBF1F15E6826F03F060E435E6085
:102310006368934206D94FF4967359434FF47A7326
:10232000B1FBF3F12368491C1E6A26F03F063143D6
:1023300019626168914210D84900401EB0FBF1F269
:10234000521CC2F30B02042A01D2042022E0B0FB8B
:10235000F1F0401CC0F30B001CE0A268F2B301EBEB
:10236000C10303EB0116431EB3FBF6F35B1C43F4FE
:1023700080431B0549D092B301EBC10202EB01116E
:10238000401EB0FBF1F0401CC0F30B0040F4804055
:1023900040F400402168CA694CF6FF739A43104329
:1023A000C861D4E9071001432068026822F0C00226
:1023B00011430160D4E9030101432068826848F2B7
:1023C000FF339A4311438160D4E905010843216832
:1023D000CA6822F0FF021043C86001E00EE016E078
:1023E0002068016841F0010101602564202084F823
:1023F0003D00256384F83E50002070BD01EB41068E
:10240000431EB3FBF6F35B1CB3E70120C2E701EB0D
:102410004101401EB0FBF1F0401CC0F30B00B7E7D8
:10242000A086010080841E0000093D0040420F008C
:102430002DE9F84F1F4690468A460446DDF828905D
:10244000FFF72CFF054694F83D0020287FD1192383
:10245000012240492046009500F078FC002876D102
:1024600094F83C00012872D0012084F83C002068D8
:102470000168C90703D1016841F0010101602068CA
:10248000016821F400610160212084F83D001020E2
:1024900084F83E0000262664C4F824806785608D99
:1024A00020852D48E0622B464A465146204600F0E2
:1024B000D3FB90B9206841698069009036E02A46D4
:1024C0004946204600F0E8FC50B1206C042804D1B5
:1024D0002068016841F4007101600120BDE8F88FB7
:1024E000606A216800780861606A401C6062618DE2
:1024F000491E6185218D491E89B221852268536953
:10250000DB435B070BD451B100781061606A401C5B
:102510006062608D401E6085208D401E20852A46A9
:102520004946204600F0E6FB0028CED1208D002849
:10253000C5D154F83D0B016841F4007101602020C1
:1025400004F81E09E67766770020C7E7FFE7022058
:10255000C4E70000020010000000FFFF10B586B0C5
:10256000044614216846FDF707FF13492068884296
:1025700020D112480021026842F002020260006885
:1025800000F002000590C02000901220CDE901016A
:10259000032003900420049069460948FFF78EFD4C
:1025A00006481030016841F400110160006800F431
:1025B0000010059006B010BD0054004030380240B5
:1025C000000402400248816802781144816070472B
:1025D000080000200B4810B5016841F4007101604B
:1025E000016841F480610160016841F4807101601B
:1025F000032000F061F80F2000F006F800F024F846
:10260000002010BD003C024070B50D4D04464FF453
:102610007A712878B1FBF0F00A490968B1FBF0F053
:1026200000F0EEFA48B9102C07D200222146501EC5
:1026300000F022F800206C6070BD012070BD000029
:1026400008000020140000200A4808B5016841F481
:1026500080410160006800F4804000900548001F40
:10266000016841F080510160006800F080500090E6
:1026700008BD000044380240F0B40E4B1B680C4605
:10268000C3F30223C3F10705042D00D90425191D46
:10269000072901D2002300E0DB1E012606FA05F11E
:1026A000491E214099409E40761E16403143F0BCA1
:1026B00000F06DBC0CED00E0064900F00702086870
:1026C0004FF6FF03184040EA0220034A1043086017
:1026D000704700000CED00E00000FA052DE9F0471E
:1026E0000E46050065D0DFF81481D8F80000F7B277
:1026F00000F00700B04207D288F80070D8F8000058
:1027000000F00700B04254D128683D4C810712D533
:10271000400703D5206840F4E05020602878000787
:1027200003D5206840F4604020602068A96820F04C
:10273000F000084320602878C0072DD03049686831
:102740000839012812D0022813D0032811D00968B3
:10275000890700292DDA216821F003010143216056
:10276000FFF79CFD814641F2883A0EE00968890333
:10277000EFE709688901ECE7FFF790FDA0EB09019D
:10278000514502D90320BDE8F0872068696800F050
:102790000C00B0EB810FEFD1D8F80010404601F0EB
:1027A0000701B14207D90770006800F00700B04286
:1027B00001D00120E7E72878400705D52068E968BF
:1027C00020F4E050084320602878000706D52068F0
:1027D000296920F4604040EAC100206000F028F838
:1027E0002168084AC1F30311515CC84006490860DA
:1027F00006480068FFF708FF0020C4E7003C0240DD
:10280000083802401A310008140000200C00002093
:102810000448054900680968044AC1F38221515CF3
:10282000C840704714000020083802402A310008D0
:10283000154810B5006810F00C02144813D0144964
:10284000042A0FD0082A0ED10F4C241F22682368B7
:1028500002F03F025B0207D52068C0F38810A0FB9E
:10286000010106E0084610BD2168C1F38811A1FBF3
:1028700000010023FDF7FEFC2168C1F30141491C62
:102880004900B0FBF1F010BD083802400024F4000C
:1028900040787D012DE9F84F04006ED02078DFF8F4
:1028A0004C93C007A9F104054AD009F1040001685E
:1028B000C1F38101012908D00068C0F3810002281A
:1028C0000AD1D9F80000400206D52868800337D520
:1028D00060680028E1D033E06068B0F5803F10D038
:1028E000B0F5A02F286810D020F480302860286828
:1028F00020F4802028606068A8B1FFF7CFFC06466E
:102900000DE0286840F48030F4E740F4802028602F
:10291000F7E700BFFFF7C2FC801B642873D8286864
:102920008003F7D50CE0FFF7B9FC064605E000BFD1
:10293000FFF7B4FC801B6428F0D828688003F7D424
:102940002078DFF8AC8280074FF0000A3ED5A74818
:10295000001D016811F00C0F08D00068C0F3810061
:1029600002280BD1D9F80000400207D4286880075C
:1029700016D5E068012800D112E033E1E068B8B173
:102980000120C8F80000FFF789FC064605E000BFFB
:10299000FFF784FC801B0228C0D828688007F7D581
:1029A0002868216920F0F80040EAC10028600DE0A5
:1029B000C8F800A0FFF772FC064604E0FFF76EFCC3
:1029C000801B02281FD828688007F7D420780007CA
:1029D00022D5864F87486169703771B10121016046
:1029E000FFF75CFC064604E0FFF758FC801B02285A
:1029F00009D838688007F7D50EE0C0F800A0FFF7C7
:102A00004DFC064605E082E0FFF748FC801B0228EB
:102A10007DD838688007F7D42078400768D5DFF87C
:102A2000CCB100270BF13C0BDBF80000C0000BD44D
:102A3000DBF8001041F08051CBF80010DBF800000B
:102A4000012700F0805000906B4E3068C00510D414
:102A5000306840F480703060FFF720FC009005E0A3
:102A6000FFF71CFC0099401A022850D83068C005B6
:102A7000F6D55E4EA0686C3601280FD00528306868
:102A800010D020F001003060306820F00400306089
:102A9000A068B8B1FFF702FC00900FE0306840F08A
:102AA0000100F4E740F004003060F7E7FFF7F6FBC1
:102AB0000099411A41F28830814266D83068800717
:102AC000F4D50EE0FFF7EAFB009007E0FFF7E6FB26
:102AD0000099411A41F28830814256D83068800707
:102AE000F4D42FB1DBF8001021F08051CBF80010A6
:102AF000A069C8B33D49091D0968C1F381010229D4
:102B00004AD00228504607D0C8F8600000E03CE0F8
:102B1000FFF7C4FB04463BE04746C8F86000FFF7F8
:102B2000BDFB064605E000BFFFF7B8FB801B02288F
:102B30002BD828688001F7D4D4E907010843A16A9B
:102B40002E4A490802EB0141626A41EA82110843B8
:102B500094F82C1040EA0161C9F800100120386691
:102B6000FFF79CFB044606E03EE000BFFFF796FB44
:102B7000001B022809D828688001F7D534E000BF7F
:102B8000FFF78CFB001B022802D90320BDE8F88F59
:102B900028688001F4D427E00128F7D0D9F8000094
:102BA000E26900F4800191421CD1226A00F03F01E9
:102BB000914217D147F6C071626A0140B1EB821FA2
:102BC00010D1A26A4FF0FF3300F4403103EB520200
:102BD000B1EB024F06D194F82C1000F07060B0EB0E
:102BE000016F01D00120D1E70020CFE70438024077
:102BF00000004742800E4742007000400000FFFF87
:102C000010B5401EB0F1807F01D3012010BD4FF000
:102C1000E02460610F21601700F0B9F90020A06185
:102C200007202061002010BDFEE701684A69D243F9
:102C300052050FD46FF480624A61002140F8301FC2
:102C4000202242738173026942F00402026101731F
:102C50000120704700207047F8B50446C06A1E4640
:102C60000D461746082807D0012805D010F5803FEB
:102C700002D0206B122804D12068016841F48071D1
:102C80000160134600224FF001112046009600F02B
:102C90005DF840B120680068C00502D54FF40070AF
:102CA00020640320F8BD2069B0F5804F0ED00620C7
:102CB000216800EAD51040F0F000086133463A463A
:102CC0000B49204600F08AF878B902E005F0FE00D2
:102CD00000E0E8B221680861054933463A46891F99
:102CE000204600F07BF80028DCD00120F8BD000071
:102CF0000800010070B516460D4604461EE0204649
:102D0000FFF793FF08B1012070BD681C16D0FFF7D4
:102D1000C5FA801BA84200D885B920684069C04325
:102D200040070BD5002044F8300F20216173A073B9
:102D3000216941F0200121612073E4E720684069A6
:102D4000C0434007DBD4002070BD00002DE9F047F0
:102D5000984617460D460446C1F30746DDF8209015
:102D60002AE000BFB8F1FF3F26D0FFF797FAA0EBAB
:102D70000901414502D8B8F1000F1DD12068012E8C
:102D800016D0806925EA00000004000C12D0002053
:102D9000B84211D1002044F8300F20216173A07394
:102DA000216941F02001216120730120BDE8F087F5
:102DB0004069E7E70120EBE72068012E0AD080692F
:102DC00025EA00000004000C06D00020B842C9D05B
:102DD0000020EBE74069F3E70120F7E72DE9F04732
:102DE000984616460D4604464FF000094FF0200A5B
:102DF000C1F3074723E020684069C043400515D46C
:102E00002068016841F40071016021686FF48060FE
:102E10004861C4F8309084F83DA084F83E90216C5D
:102E200041F00401216484F83C9021E0701C06D03C
:102E3000FFF734FAA0EB0800B04203D816B1012F17
:102E40001FD021E02068012F15D0806925EA0000FD
:102E50000004000C18D000BF44F8309F84F80DA087
:102E600084F80E90216941F02001216184F80C90D2
:102E70000120BDE8F087406925EA00000004000C4D
:102E8000EAD12068406901E02068806925EA0000F5
:102E90000004000CAFD1ECE770B516460D460446B1
:102EA0001EE02046FFF7C1FE08B1012070BD681C7E
:102EB00016D0FFF7F3F9801BA84200D885B9206827
:102EC0004069C04300060BD5002044F8300F202194
:102ED0006173A073216941F0200121612073E4E74F
:102EE00020684069C0430006DBD4002070BDFEE7C7
:102EF000FEE770477047FFF765BB000010B592B062
:102F000030216846FDF738FA14210CA8FDF734FA91
:102F100018480024016841F080510160006800F009
:102F2000805011901448016821F4404141F400415F
:102F300001600068069400F4404011900220009067
:102F400001200390102004906846FFF7A3FC08B10D
:102F500072B6FEE70F20CDE90C040E940F94002109
:102F60000CA81094FFF7BAFB002801D072B6FEE758
:102F700012B010BD403802400070004002480168A5
:102F800041F470010160704788ED00E0FEE7090739
:102F9000090E002804DB00F1E02080F800147047DF
:102FA00000F00F0000F1E02080F8141D70470000D1
:102FB000A6B0FFF70FFBFFF7A1FF1C480021026836
:102FC00042F001020260026802F0010225920268EA
:102FD00042F0020202600068154A00F002002590EB
:102FE00014480260144AC0E901214FF48042C0E94C
:102FF000031241618161C1610162FFF755F908B1B6
:1030000072B6FEE70B49684600F05AF80BA30A2295
:1030100028216846FDF732FB0A220AA311466846BA
:10302000FDF746FB6846FDF788FBFEE730380240B7
:103030000054004018000020A08601007538673257
:1030400000000000E4BDA0E5A5BD0000F8B51A4CE5
:103050001D461829237814D004DC142929D01729F7
:1030600025D102E0192922D117E014490020194482
:1030700002E02E5C0E54401C9042FADB981820703F
:1030800017E00020207002E00A20FFF705F86068D2
:1030900090F83D002028F7D10BE04FF0FF31009170
:1030A00090F82410054A6068FFF7C2F908B10020C3
:1030B000F8BD0120F8BD0000000000206C000020D9
:1030C00010B504460D480E4B0E4A41600E4920468D
:1030D000FDF7CEFB2046FEF7CBFB00212046FEF796
:1030E000E5FB0A492046FDF736FB2046FDF7C9F906
:1030F0002046BDE81040FDF720BB00000000002086
:10310000F11E00084D30000834310008403100083D
:103110004FF00000E1EE100A7047000000000000D0
:103120000000010203040607080900000000010274
:1031300003040000D5170008EB1700081D0C000859
:103140009B00020304040304050B0AFFFD06FD07B0
:10315000FE014F02A503CD200500440A2107723D60
:10316000CA310A220735648BC412230D773C9C5266
:10317000922ED5A5942400240C86B47B7CC5F4251E
:10318000D13100251178BC9C0C52A22483322889AD
:10319000120D4A00260C76BCDB28698E52254A02A5
:1031A000270632658A01280B9435AB244AA25A942B
:1031B00005290C94358B2CCAA24A9444002A0B751D
:1031C0003C6B2AB2262B19022B0B56C4AB0C89A6DA
:1031D0000C89002C0733B59A44012D0616D48B01B7
:1031E0002E06223D0A012F0B85B5BB52166551965E
:1031F00001300A76BC1B25F2942800310874BDAB5F
:1032000044893A320A76BC1B2592B2B601330B765A
:10321000BC8BADA64152A200340D76BCBB3C4652DD
:1032200028D9322401350D76BCCB1143352843A46F
:103230004401360C76BC1B254395C8942800370DF5
:1032400076BC8B0DC96A4896211900380C76BC1BD8
:1032500025921225921205390C76BC1B2532A51A2F
:103260009228003A07623D0A0D113B0973349A1AFD
:103270002551003C0B75BDBBA80DC9900C093D073D
:1032800036CC8B0D1B3E0C75BD8B0CC9900C89DAAE
:10329000003F0B76BC1B2592B21A4B04400A76BC49
:1032A0001B2552DD2005410D773CEC0CCD922849C1
:1032B000874C0B420B76BC4B259297485E00430E21
:1032C00076BC1B25D2900CC990285100440976BCCD
:1032D0004B25F2BC004509753CCB2DDF7201460938
:1032E000753CCB2DDF6A00470C76BC1B25D2905471
:1032F000925201480A76BC8BC83C46A60049067229
:10330000BCC9034A0E76BC3B2443322443242951D2
:10331000004B0C76BC8B4849E44C4A4A014C08757A
:103320003C8BAC77014D0F78BC8C0C958725D11068
:103330000DD190004E0A76BC8B581D53C9144F0A0C
:1033400076BC1B25F2942800500C76BC4B25322FFE
:1033500019922100510B96AC1B25F29468191C524E
:103360000A76BC4B259297C814530C76BC1B25D605
:10337000100D951205540F76BC8B2943322443322D
:1033800024432200550976BC8BC8A74401560A760F
:10339000BC8BC84BA26500570F78BC8C24511225FA
:1033A0005112A5325500580C76BC8B484AB44C8952
:1033B000A400590D76BC8BC8946819922111005A4B
:1033C0000A753C4B2D8AA3BA005B0894358BA94F34
:1033D000025C0D85B58B2C43B20CC932240B5D0801
:1033E00094350BA94F035E0836E4AB4C89025F06A7
:1033F00016B48B01600843DD8A244A026109553CFA
:10340000DB0C499644620A753C8B2C5312CB026349
:1034100009553CDB24D132446409753CBBCA62497E
:10342000046509553CDB241D3244660A753CEB24D7
:103430008B95AC04670A752C9BC592686902680A73
:10344000753C8B2C53129700690772BC89780C6A03
:103450000A942BAA0C8B3A2B006B0A753C8BACB2EE
:10346000464A016C0672BCC9036D0B58BCCCA5A2C0
:10347000244AA2146E08553C0B2571096F0A553C6D
:10348000DB24B1A40900700A752C0B25B12C590658
:103490007109752C9BC59268057209553C8B54CAFD
:1034A0006A007308553CDB3D5F00740A753C9B2C39
:1034B00056B21A1A7508553C8BC425117609553C2D
:1034C0008BC4324500770C58BC8C245112A5325560
:1034D00000780A56BC8B34D1323509790A752C8BA9
:1034E000C425D1D2047A08553C4B392D0B7B10965C
:1034F00035FC28433224CEA00CC9900C0E7C0792D8
:10350000B6CA83007D119635CC0CCA900CC9E02850
:10351000433224CE007E082764DC444D007F050042
:1035200044080000000C59390849706B0889FFFFF6
:103530002013071855CD114E00092A543D4A3A066A
:103540004E0A159A343D242365A48CAC41192923D5
:1035500065A40C1D034E0B179A34CD3143325246ED
:10356000CE28298625199491325286004E0D169A3E
:1035700034CD31C3324A46C930154E6A500DC94860
:1035800019024E2A149A343D0DAA254D352423657F
:10359000A48C949132044E2D159A343D244347292E
:1035A0009222291E35242365A40C014E3A189A3420
:1035B0009D1A9662F09021518644598A445524837D
:1035C0003434014E3B159A34BD8C96A1638664A4B5
:1035D0000C1E31282365E8184E48169A343D2423E2
:1035E00065948C12655146C92851561D51004E4BA9
:1035F000169A343D242365F08891324A1665480DA9
:10360000A941D1004E5F199A343D24C352244B5234
:103610004C4954244B912CC5B00C8947004E66137D
:103620009A34BD281D512CC9A0241EB39EB30C0290
:103630004E86169A34CD31A364940CCF28192923D1
:1036400065A40CD310004E8B179A343D2443C72831
:10365000A5212979C8A074D4A08C9A21004E8E1679
:103660009A34DD1183325246CAD03143325246CAAF
:10367000A819024E91149A34DD11E3FB9865A42435
:1036800043A22C4A6125014E92149A34CD31CBC805
:103690001A126548946F5146CAC7004E9B139A345C
:1036A000AD244B8714C91265D298478C790C4EA46F
:1036B000179A343D2443C7A896215528C5528C92A9
:1036C000E1499CA1014EBA169A343D242365A48C8D
:1036D0009451520C4B31A89621352C4ECE169A346B
:1036E000AD1A1265489421519632A54C55248AA4EE
:1036F000024ED6169A34AD1A92D2926451912AA5EE
:103700008A2519944449324EE5179A349D0C895202
:10371000A852CA902843A21489A40C4FF12C4EEA57
:10372000149A34AD2483AA48592955A1AC530A25CB
:1037300051004EEC149A34AD148D92CE4A9494926A
:1037400052524A4A49354EF6139A34AD9486A44AE9
:103750008AC42992B52C594F004EFD169A34AD38C3
:103760004B9128A9A658922C51524A9A9216004F72
:1037700018199A34ADA49464483A4419126548154E
:103780004B522C45522445044F1A149A343D0DAA2D
:10379000654855C558C7A816A5B092004F20169A7F
:1037A00034AD1A922A599C2C5186A4528644492938
:1037B0008E004F46149A34AD544AA1A4AC2CA5A453
:1037C00094244B464A064F5C189A34AD14C35225D4
:1037D000A5A7881265489421B112654894014F60ED
:1037E000159A34AD14C352A5AC22594B2945522425
:1037F0002B47004FDD159A34AD544AA1A4AC2C5987
:103800006589B324A5A4480A4FE1149A34AD54CA7B
:1038100028E99091922523254B29490650A8199A09
:10382000349D14AAA44986B42829922229A2A44826
:103830008A5429292250CF189A34AD448FAA438A3A
:10384000A448B25429291A25292545520051451664
:103850009A343D2443C72CC9902C5EB114C3522422
:103860004A52595146189A34BD144B52A4CA86A4E0
:10387000189C92528A92625092CA025165169A34EA
:103880005D8D9491325246CA282906251992451910
:103890001C516C139A347DAD0D694A6A5115AA45C5
:1038A00029AC24005173169A34AD1A9462E8884109
:1038B000192943C72CC5A07286065176139A34ADD8
:1038C000F218D5900D89E231638BE20C0D5185160B
:1038D0009A343D2443472952524485120DD5300D68
:1038E000D3E000518C169A341D354A9952A694752E
:1038F0004C52A694A59454130051FA159A343D24C1
:10390000839252521E31282365481449F12851FBF5
:10391000179A343D2483470CCA48193A664806254D
:10392000A5A43C22005206159A34AD442B65489458
:1039300041EA9044191265A538025207169A349D3F
:103940006489922A254D5229694A4A8994E11100D5
:103950005220149A340DB5CA9AB2A6ACC3CA9AB210
:10396000A6AC29075230149A348DA915A9A22BA907
:10397000BA92AA50868E68005236179A348D144334
:1039800047144DA17448A1EA8AA6AC2949A506525C
:1039900037149A348D494AD1154DA1744553D694A4
:1039A000B5540F524D149A34AD241F33561551524D
:1039B00074459414DD9438526A139A34ADF2A8A475
:1039C000E88A2871C63A66D99C0052A1169A34AD8D
:1039D0008C3C222992E1199C56A27843A2444E00C5
:1039E00052A8189A345D152365D441A56429922202
:1039F0006992222B942115005343169A343D48D6E0
:103A000048192943C70CC94819292365080053558B
:103A1000159A34ADFA0825E5114ACA230665E898D7
:103A2000211902535A169A349D2C4592A58A5AAAF6
:103A30009464C9A0A4944449005361159A34BD8C80
:103A4000AC41192983C72C2369589A211904537052
:103A5000149A34ED744AB47445B4444BB47445328A
:103A6000280353BB179A343D2483470CCA48193A9C
:103A7000664986445994C24A0253CC179A34CD31D0
:103A8000ABA4942A254A522C49A11489E214CF02EE
:103A900053D1149A349D14C952281DA38C3CA550AF
:103AA000D286990353D6149A34CD3129A55252A502
:103AB000AA94A6A4B2D2D02453E3118935CD418370
:103AC000344883344883870D0A53EA179A34DD114A
:103AD000CA902843A20C8932241E31B60CA9610178
:103AE00053EF159A34CD31A3C44A9494925252564E
:103AF0003252464D0053F0169A34BD8C92451992BD
:103B00008E19F30865489421F1880053F7159A340B
:103B1000DD11CA9078C498C728A38E50866490049B
:103B200053F8149A34CD3123254B464A9652524AC3
:103B30009225A306540C159A34CD51C35435C35461
:103B40003585D2144A53358303540E149A343D4CB0
:103B5000D9908C3C2419291D914CC9F20154271786
:103B60009A343D744CA9296BCA9AA22B0D496988D5
:103B70000A65B000548C169A34FD0C51A5241D9290
:103B80002829A7489A242A524A0554CD169A343D2A
:103B9000285331241D520C51D12A6BCAAAA6501E9B
:103BA000552E129A34ADFA2865E89044193A4459D2
:103BB000FB025546159A343D2443C7A83C2A29A246
:103BC000A2239A282962095668149A341D354A9905
:103BD000D40C8A47A9AC2829939A0056DE159A344A
:103BE000CD51C3543585D2144A53284DD50C1F05E9
:103BF00056E0139A34CD518AA4789C222545542846
:103C0000CDF05156FD129A34CD51C354358A5435F6
:103C10004AAD193E0A56FE139A34CD51C954454552
:103C2000D2C4CAA2C2523C0A5728109A34BD0C1EF4
:103C3000A31A1265E990F5655730179A349DAC9236
:103C4000422A9A242A52A554B124435428430657A1
:103C50003E159A349D544A2A2A2D594A494AA9A206
:103C6000A94A830A5740159A349DAC49A525695243
:103C7000C592144B5248A5C103575B169A349D64F4
:103C8000C9281A2559A20C6951910CA9624A0057FA
:103C900083139A349DAC3A6694A6A4949492149299
:103CA000327857DF199A349D2C45D231CA12154902
:103CB00091144999D21491520C4D025899159A3485
:103CC0009D2843D221A594522859524A151DB27CF1
:103CD00058F3149A34CD31433278C498470D8B365B
:103CE000244A34015907139A34ED45CBB60C49C721
:103CF000A4798492F28800590D139A349D8C3CA8C3
:103D000058BED54724853254D203591A179A343DE8
:103D100024A3EA5106259AB242199462788668086B
:103D2000005927169A343D242365E8982119292340
:103D300065941483CA191A5929169A34DD118332ED
:103D400052868E199291324A8A41E50C0D593416E9
:103D50009A349D288353AC862619291F3324C5A085
:103D60008A86045939169A343D2443C70CC9A0A445
:103D70009692C72CC5A07286065979159A349DACC7
:103D800092422A9A246A154DD9920C4E215D597D92
:103D9000169A34AD54CAD0A98A44E91A654894A544
:103DA000489447005982179A34AD8C148F29A54A3C
:103DB000A9A2518AA8480A278992065B50169A340C
:103DC000DD11A364948C92A1638664A48C94513316
:103DD000045B57169A343D2443470D8B364A46C937
:103DE000D03143326A86005B58149A34BD0C1EA34E
:103DF0008C944819926695252B47005B66169A3479
:103E0000AD943C6A98AA625046C9D03143326A8662
:103E1000005B9A169A343D2443470D4B470CCAB0B9
:103E2000444B314C4363015B9D169A343D24434718
:103E30000D4B470CCAE01183520C4BD2315B9E15DF
:103E40009A343D24434725CB9014AB21F5314B22C6
:103E50002D015BA2159A343D244347A59A4229922D
:103E6000D23093544326005BA4169A343D24434732
:103E70000D4B470CC928513E6250868E015BB61629
:103E80009A343D2443470D4B472C85D5144FE228E7
:103E9000C933045BBD179A343D24434715A98E5896
:103EA0009421290D4969508AAC025BF9189A343D76
:103EB0004A2A65E89242599242291AA5509241191C
:103EC00035015C0F169A343D24236550524A4A4905
:103ED0002445520DC9A819025C31169A34ADCA9214
:103EE00062E8A0444959A525299252AAD4005C4011
:103EF000159A34DD11CA90788432F290A4942AC5C0
:103F00000D4D005C4F159A34DD21C9A0744852282C
:103F10001E92AE4394E451025C5E159A34DD21C9D1
:103F2000A0744852A654AAA18396A82A005E16142B
:103F30009A34AD1A1245ABCA9432A5E84AAA425542
:103F4000015E26159A34AD943C46297994AA2394AF
:103F500094921A9421005E55139A34ADF218D54705
:103F60002843D2314AC963D2025E74159A34AD8CAB
:103F70003C2251966C490625F998411929035E7B2C
:103F8000179A34AD54C920254B522CCA9028436A45
:103F90009012A54A045E8F189A343D284387242343
:103FA000254B8644490AA54386A4181C015E941734
:103FB0009A343D2843872423A5942AA5CA52A56490
:103FC00048868E005E97169A343D28438724CA900F
:103FD000588932241D914CC9F2015EA6139A343DD2
:103FE000284387A47948BA2CA50CD2E4005F0016B8
:103FF0009A34DD118B3224CA90281EA31A12654808
:104000009495005F0F139A343D281D352C23452BC2
:104010008664EDAA06055F151299344D298BB27896
:10402000D2E0298BB228CD025F53149935BD0C29FB
:1040300025299221193A64D441A30E025F55139A9F
:1040400034DD1123C523464AC7A42DCD92D6285F5F
:1040500097169A349D74846AC89442493A6450927F
:104060002CA5244A025FAE169A34DD949452A3150F
:104070002325899529654A91144D0A5FC3159A3401
:10408000FD8C9E71CBB014AA624A062551862C0085
:104090006000189A34AD54CA9214AA224ACA9A42AD
:1040A000552843A20C8922006027179A34AD9486C4
:1040B000A4A4145D4A295445572843A20C1D01604D
:1040C000F3159A34AD7454A25451111529A55A927E
:1040D000A598AA02620F179A343D285D917C496920
:1040E00050D2CA94225186A4189A046210159A34A8
:1040F0003D28498724CB554A95D294B421699C0424
:104100006211149A343D15514A493E46354445B52D
:10411000528A26056234179A34AD244555244AF252
:1041200051655A292994AC689222016240169A344A
:104130004D398363154B9225A5AA94282925352846
:1041400001624B169A343D48D648193C6250868E1F
:10415000199291326A86006253189A349D64C9900C
:10416000448B3224CA90384B3324CA9034520062B4
:104170006B159A34AD54CAD02DCA902895B30D89C9
:1041800032244D056284159A349D2843A25C25553E
:104190004A199AE41994E4690D62A4179A349D644B
:1041A000C928AA524A9235C5D02483520C4E3108F0
:1041B00062A5169A34AD544AE1118D520C1FD114E8
:1041C0005239A5489C3262D2159A349D64A9A163E4
:1041D000524A4A693A2219946468326309169A3439
:1041E0009D2843D2414BA20C49D6144993525C49B5
:1041F00003636E149A349D6449F15149912C1D5208
:10420000244F95B2326389179A349D2843E231C511
:10421000906429A5E98844493A64110063A5149A79
:10422000349DAC3AA648942C51868E4A29AEA401FE
:1042300063CF179A349DA6744C9128595224454750
:104240001549911449940163D2159A349D64C9E2C9
:1042500031C92A69A2244A9AA448A20C641C159A5E
:10426000349DAC928E488A54931449D15129C595F6
:10427000346444149A349D64693125A50C89927480
:104280006549A144656478129A349DE6512925ABAD
:10429000AC2C593E2A150064AD149A349D64A9A231
:1042A00052962C4D4AA22C2992280364CE189A3497
:1042B0008D154BD1419152528AA42A9221193A6606
:1042C0004886006536189A34AD14435274A53425D7
:1042D0002992222992225215CD10356570179A34F1
:1042E0008D94294907254DA929948E2894949434B6
:1042F0004E026587179A343D2443C70CCB90284360
:104300006A588A51323C89333465B0189A34AD7496
:10431000D4909486A4E8A062498AAAE414A952120F
:104320000065B9139A343D2443C72C2365A4AD53CB
:1043300086D4230065E0179A34DD11833252868ECD
:10434000199251520C4B312849650165F6189A347F
:104350003D4AA225E99062898A54911449B144CB1F
:10436000A80900662F169A34DD11CA907884322489
:104370001D3324C3124D436301663E169A34DD118A
:10438000CA90788432241E912A526543527C0C666E
:104390007A139A341D6545D2218992EAA062F956B2
:1043A0005F006709129A343D2443C72CA3CE59926B
:1043B0006CF5AD02672C179A343D2443C70CC9280D
:1043C0001A94D29256154332528600673A179A349D
:1043D000AD444B9164C952244E913845AA942A2980
:1043E000CE026765179A343D2483470CCAA0A49671
:1043F00092C73CC59014499328677F179A34AD54EF
:104400004A3164C3523585121551911449E12C2962
:10441000679C159A34DD114ACA239494470CCAD07C
:10442000314AC9491A6807169A34AD54CA708D9238
:10443000AA519E5253D6A40AA51100680F169A34A9
:10444000ADA494A4882A65D48C9A282986A5182915
:10445000156837159A34ADA494A4882AD51339AABF
:10446000A22B94215104683C139A34AD544AE1952F
:104470001657AAE91AA9A4AA00684C179A343D64F1
:104480004332788432241EA10C49C72825276900AD
:104490006863159A34AD1A92529614AAA78AA6A2F6
:1044A0002B8644A90069FD149A34AD94868E2AF3B4
:1044B00088A6AC834A524955016B4C169A348D0D2F
:1044C00049D1955565C3A2154A99941443A3006B2D
:1044D0007B189A34CD3189324445AAAC291225295A
:1044E00086A54894A4B2006BD2179A343D2443C7E2
:1044F0000CC9D0314A91744C52281E322C026C6087
:10450000189A348D0CC99214C3524945AA3424C553
:1045100090148392481A6CA1149A348D584A6A50A8
:10452000D29C642C1B94447194166CD5179A348DCC
:104530002C43920DCA6A48B241290625518AA489A2
:10454000126CE8139A348D2C43B20C1E3224AB61EA
:1045500053AD940E6D4F189A348D244B522485D64A
:10456000946BCA96A4488AA429A98A066D6A149AEB
:10457000348D0CC9920D89A4A5942153CAD239094E
:104580006D88159A348D0CC95224C59036244BB6CB
:10459000FA92624A1C6DD8169A348D24C3922D5318
:1045A00055244AE21183922A4559006E38159A34EF
:1045B0008DA43E642996244AA98A64D0D235490044
:1045C0006E90179A348D7449910C4A9614A9225A08
:1045D0008A64F0524AD1146ED1159A348D644AA17E
:1045E0000C29A54B06651B1255955202706B169A45
:1045F000343D2423553AA5189691332CC9902CCDDF
:10460000A000706F159A34AD74A5342529D69C4549
:10461000299444490D4D0070B9169A343D24236BFA
:1046200050068F5086C423C696B2442901713617AE
:104630009A345D95928E285B8A6448154DA28C2928
:10464000658952027247169A349D2843A20C1D9226
:104650008C9491B75286441912017259179A34DD1D
:10466000118B3224CA90281E3324C5A02443A2B83B
:10467000047269179A348D9486A4E8A0A2296BCAA3
:10468000394596520A5591047279159A34AD56748B
:104690004CA2149532241E35244AA14A0173A9154F
:1046A0009A34FD41A364A4744C52A80A551115C94B
:1046B000E30073B0179A343D744CA1A44AA9A22A0E
:1046C0004B9512A588926268017406149A34FD51C4
:1046D00049916449917450B2EA1865F000751F174A
:1046E0009A349D1A9464F08844191265F08841192F
:1046F0002943C7007528149A34DD2129A543524A5D
:104700004AE99094A4484A037535149A34BD0C1EA6
:1047100092523A24A5A4940E1992E50375C5149AF1
:10472000343D2843478D3C6A952545D22445D428FD
:10473000767B179A34CD15435252A2425574445297
:104740002885362889C700767E179A34CD314332C2
:104750004A868F5086C42394215186C423027684CE
:10476000149A349D1A948E9292AF88524DF22DC3B2
:10477000130076D8159A34BD8CB22129798C521A3F
:1047800012E52394B28E01770B169A34CD31433261
:1047900078C4900C1EA32C1E9114CB1700771F1504
:1047A0009A34CD3143326C43A20CD990281EA372A7
:1047B00086067740169A34BD241E332483872C4AFC
:1047C000C7384A532843160077ED159A348D78D0B0
:1047D000A01495527884AA529242294B347801153C
:1047E0009A34CD54CA9028694A1275C510554D3176
:1047F0006412786C139A34CD31C9AA2394A2EACA00
:104800005A55D1680D789F169A340D952559AA6886
:1048100094AE1892A22B1AA52C4B0A78C1159A3483
:104820000D154A9AD2114B56A48AAE48A252D231E3
:10483000793A139A34DD11E3FB982119298392A662
:104840007A8600793E129A349DAC79CC920C89F22A
:10485000284E91AC6579BB169A343D2443C72CC5CC
:1048600090A6947554321549D4940079CD169A3493
:10487000FD149232241D5452CA9A2E3524CA90280F
:104880000279FB179A34ED7489922845952C1E9174
:10489000284D5228CE920C017A0B149A34BD7444E0
:1048A0004AE9985152A9A6AC5086A4027A97159A63
:1048B000343D2443472545A2241F95AA9248293A0E
:1048C000087B14139A349D284394951269644D23F0
:1048D000AD5A860C7B52149A349D2843949592319C
:1048E0008F1A3EA6299258027B7E149A349D284343
:1048F000949592219AA46558528BE2317B80159A47
:10490000349D28439495525DA3345553284DD50CBE
:104910000E7B97169A349D28439495128F5086C427
:104920002316C5639245007BB1149A349D284394A5
:104930009592A583545553488DAA027C98149A34B5
:10494000AD56A62491CA4A86A46A0AA9A4AA007CE4
:10495000FB169A34DD1143324A9441294689470DAA
:10496000C9A0A4A9007D20179A343D2443C70CC9CF
:10497000E0114B32A43C4A29922651007D22189A1C
:10498000343D2483470CCAD05149912845D2314A3D
:10499000913489027EBF159A34AD2485D211CB544F
:1049A00025CAAA88945153150D7ECF159A34AD545B
:1049B000C9901A1229299444F21865A448157EDC7E
:1049C000149A34AD542969292247157550A10C89D0
:1049D00056017EDD149A34AD444ADA904855AA68EF
:1049E0003CA618295A057EDF179A34AD5A3A622937
:1049F000A22251A26629A2A41894242A1A7F16136F
:104A00009A34AD5A3A42D1AAD490784CD9D0316573
:104A10007F51159A34CD51A9261525455324512A85
:104A20004A2A451A1C800C179A34CD3143324A0663
:104A30008F4A8A2829A2A48892221A1C8033129AAB
:104A400034CD31CAF2ADBEE5F19A21192901804A6F
:104A5000169A348D5585D29455A5A6AC29EB8AA615
:104A6000D42825018054169A344D15A9320F498A4D
:104A7000E4439222994A4DD9D02880FD179A349D5B
:104A80002851D254C5C8638A25E99062498A288989
:104A9000008111169A340DA93A68588A242AAB4A23
:104AA0004D914425A9A80081EA119835AD0C1D331C
:104AB00074D4D0514334740C8282169A34ADF218F7
:104AC000D5B88E181265489421698664100082F961
:104AD000159A34ADF21895C728A525352843C70C7B
:104AE000C9100083DC149A34ADF218D5472C453236
:104AF000A43C462939490384DD149A34ADF21825C3
:104B0000598AAE4C29168F50CA3A0685CF139A346B
:104B1000ADF218B50E4A8A2B2B525553A400884C7F
:104B2000169A349D74C4F8942A19926648942151B7
:104B3000864491028868169A343D2443C70CC9E024
:104B4000118332748C52248D33398981149A34CD77
:104B5000314B31748452A694758C6AA89E0989C61B
:104B6000199A34DD2143E21125A5D494B58AA648CB
:104B70008AA4488AA5680089C8159A348D14C95238
:104B800074654A29F1D68A64480A2B0389E3159A89
:104B9000341D65A9AE688AA423524507A53CA249E5
:104BA0000289E6149A341D254ACAA3CABAA2293A30
:104BB000A850154D078BA1129A349D2C43A28C143A
:104BC000274BD67B9495008BB0169A349D64CA907F
:104BD0008CAC2C3528C9A02483532849068BBA18DD
:104BE0009A349D3843522443722583923449B42425
:104BF00083532889058BBE179A349D544B910C4AD8
:104C0000D2244D32522A25E5344BD2008BC4149A5B
:104C1000348D74C932284994525659B23CCA4A005C
:104C20008BDD159A349D0C8DD28C14274B56594A26
:104C3000690A25C9008BF4169A349D5215C9D031E2
:104C4000C592144B92A58AA72C29228C37139A342B
:104C5000AD2C4A932CC9902CCA2065EBBE008D2D3B
:104C6000189A344D154B923552AA498A282912A513
:104C70002992624A9A008D34159A344D254A4A4940
:104C8000B29492529248492B4549048D77149A3434
:104C9000AD7454A2241DA5248315151D322C1D8F1F
:104CA0006C149A34AD92AA64518A8E2906A572B604
:104CB00094E2048F6F179A34AD245794920A254BCF
:104CC0008644199A5294144BA1008F7D169A34ADE4
:104CD000244555244AF2312AAD94144A565A8A047E
:104CE0008F91159A34AD7490927444317C8C522813
:104CF0001E55A886048FC7169A348D0CAA8E185498
:104D0000A961299A21519EA418960E8FD4159A3420
:104D10008D68A921D152CA9014D1A33451312C1DD0
:104D20008FD8139A348D74C9A23C4B6A48456B4A9C
:104D3000312C1D8FD9169A348D2C43920DA94629FA
:104D40009495522889540C4B078FDB159A348D2C7F
:104D500085D2114BA12A868E492969C5B07490016C
:104D6000169A348D288992144A972C83C7288592E5
:104D700048C5B0749002139A348D0C4E128D1427CE
:104D80004B56594A2A491D9053169A348D288992B8
:104D9000144A972CC387244AD21125A90390A3173C
:104DA0009A344D4549A92B2945B2945545AA142555
:104DB0004DAA180090AE159A34AD48AAAE684AA91B
:104DC000B2AE68CA9A5292150290E8159A34AD783C
:104DD00054912AA57544312C5DD12849560890FD7F
:104DE000169A34AD784C49552845D21145AAE84A5F
:104DF00069562100914D159A344D45C9E05D45969F
:104E0000144B525C4594145D049177169A344D9579
:104E1000140F4A9A224B0625E990224A8A2E0291C3
:104E2000CC159A34DD114ACA239494470CCAE01178
:104E30008332740C94AE159A349D6451D20C499609
:104E400014490715292569D23294FE189A349D1405
:104E50008A535483D224C5927445A2244D54528A55
:104E6000089501169A349D2A554533241E93F288DD
:104E700052AAD424859228952E169A349D58A9A218
:104E8000F198B2A4E888D29235A5A5880095ED16D0
:104E90009A348D74C9A00C4A54354BE44449111519
:104EA00049E4249632159A340DA93AA4481E65297E
:104EB000BA92554CC93434019644179A340D255191
:104EC00091444547245291446551222992D200963B
:104ED00064169A340D4549494A06A7230A55C72C3A
:104EE0004AAA299A0296F6169A34DD11833274542E
:104EF000595315CAE2414A322849009762169A343A
:104F0000CD3143327454A1345553284DD5144A073A
:104F10000197F3149A343D2483872CC9A0241EA33F
:104F20002CDFEA0B009875159A34CD314332788422
:104F300032244A4A4929A921253D9891159A34AD30
:104F40007449B1141DA42AB54A4D99536A12059F9C
:104F500020179A340D45C9A0C49241E9904449A252
:104F6000A44814AD290000001815A115C819FF00A8
:104F70001815A015C019FF001815AE15D516801507
:104F8000A8163F15D316001540158D1614152016BA
:104F90000015A115C815DA1612158116CF15D916E8
:104FA000F115DB1640152E15A415A619FF000000FB
:104FB0001815AF19FF0000001815AE19FF0000000A
:104FC0000001140A6464323200127A000004289648
:104FD0001008000080004000F84F0008000000208A
:104FE00018000000D0010008105000081800002030
:104FF000B80B0000EC0100080000000000000000F9
:105000000100000010000000000000000024F40077
:040000050800019559
:00000001FF
